:020000040800F2
:10000000680B0020A90A0008C1060008C306000802
:1000100091080008950800089908000800000000F1
:100020000000000000000000000000009D08000823
:100030009F08000800000000A1080008A3080008AD
:10004000C30A0008C30A0008C30A0008C30A00085C
:10005000C30A0008C30A0008C30A0008C30A00084C
:10006000C7060008C30A0008C30A0008C30A00083C
:10007000C30A0008C30A0008C30A0008C30A00082C
:10008000C30A0008C30A0008C30A0008C30A00081C
:10009000C30A0008C30A0008C30A0008C30A00080C
:1000A000C30A0008C30A0008C30A0008C30A0008FC
:1000B000C30A000885080008C30A0008C30A00082C
:1000C000C30A0008C30A0008C30A0008C30A0008DC
:1000D000C30A00088D070008B707000811080008C8
:1000E000C30A0008C30A0008C30A0008C30A0008BC
:1000F000C30A0008C30A0008C30A0008C30A0008AC
:10010000C30A0008C30A0008C30A0008C30A00089B
:10011000C30A0008C30A0008C30A0008C30A00088B
:10012000C30A0008C30A0008C30A0008C30A00087B
:1001300000F002F800F03CF80AA090E8000C8244BD
:100140008344AAF10107DA4501D100F031F8AFF29A
:10015000090EBAE80F0013F0010F18BFFB1A43F0A5
:10016000010318476031000080310000103A24BFBD
:1001700078C878C1FAD8520724BF30C830C144BF0C
:1001800004680C607047000000230024002500264E
:10019000103A28BF78C1FBD8520728BF30C148BFEA
:1001A0000B6070471FB503F081F81FBD10B510BD7F
:1001B00002F0F5FC1146FFF7F5FF00F023F802F01E
:1001C00013FD03B4FFF7F2FF03BC02F01BFD0000B8
:1001D00070B504460D46E1B2FF4801F042F900BF98
:1001E000FD48008810F0800FFAD0204670BD00BF97
:1001F000F948008810F0200FFAD0F8480088C0F3C2
:10020000080070470EB54FF0000900BF02F04AF930
:100210004FF4B4614FF47A7002F064FA4FF416416F
:10022000084602F057F90A21ED4800F06AFD052161
:10023000EB4800F064FDA520EA4908705A20487098
:100240001A2088700320C8702BE2E748008810F459
:10025000004F4ED0E4480088C0F30E07002605E0AA
:10026000E248805DE2498855701C86B2BE42F7DBE9
:100270000020DD490880DE498855DE4802F08BFB0E
:10028000DC48D0F80300000ED6490871D948D0F8F0
:100290000300000C4871D748D0F80300000A8871A9
:1002A000D448D0F80300C871D248D0F80700000E37
:1002B0000872D048D0F80700000C4872CD48D0F83A
:1002C0000700000A8872CB48D0F80700C872C948F6
:1002D00000780873C74840784873C64880788873A8
:1002E000C448B0F80B00000AC873C248B0F80B004D
:1002F0000874C148008810F4004F35D0BE4800880B
:10030000C0F30E07002605E0BC48805DBC49885557
:10031000701C86B2BE42F7DB0020B7490880B8499E
:100320008855002605E0B649885D02F0AAFB701CDE
:1003300086B2BE42F7DBB348B0F9000002F058FFC6
:1003400080F00044B049204602F090FE02909DF8F3
:100350000800A44948749DF8090088749DF80A00B3
:10036000C8749DF80B00087596E10020A749087035
:10037000A748C078A7490870A5480079A649087021
:10038000A4480078472839D1A44800681E30954910
:100390004875A348008888753020C8750876AA205B
:1003A0004876002612E08F48815D8B4801F059F8AD
:1003B00000BF8021884801F0C2F80028F9D08948A0
:1003C000805DAA2800D103E0701C86B21A2EEADBF9
:1003D00000BFB9F1000F01D1012000E0002000F0C2
:1003E000FF09B9F1000F04D101218E4800F089FC0A
:1003F00052E101218B4800F082FC4DE185480078F4
:10040000532823D1002086490880874908808448E2
:10041000008800EB80004004010C4FF0804001F0A8
:10042000F5FF8148008800EB80004004010C4FF08C
:10043000804001F0EDFF0020784908600846006820
:100440004B3081B2794801F0E1FF25E17148007835
:10045000462808D10A21624800F053FC0521604873
:1004600000F04DFC18E16B480078422808D10A21C1
:100470005B4800F044FC0521594800F042FC0BE1C8
:1004800064480078522814D164480068401E6349CB
:1004900008600846006810F1100F02DA6FF00F00D4
:1004A00008605E4800684B3081B2604801F0AEFFE2
:1004B000F2E058480078512812D158480068401C92
:1004C0005649086008460068102801DD10200860C1
:1004D000524800684B3081B2544801F097FFDBE08E
:1004E0004C480078492833D14D480088401C4C497D
:1004F00008804D480088401C4B49088048480088C7
:10050000142803DC08460088142804DD0020444930
:100510000880454908804248008800EB800040047C
:10052000000C43490880084601884FF0804001F0E4
:100530006DFF3D48008800EB80004004000C3C4902
:100540000880084601884FF0804001F061FFA3E079
:100550003048007844282CD131480088401E30496A
:10056000088008460088142803DC08460088142800
:1005700002DD00202A4908802948008800EB80001D
:100580004004000C2A490880084601884FF080404A
:1005900001F03CFF2448008800EB80004004000C80
:1005A00023490880084601884FF0804001F030FF61
:1005B00072E01848007840286EDC174800786428FC
:1005C00058DB15480078C82854DC134800783238C6
:1005D0001849088008462FE00038014004380140DF
:1005E00000180140570100201A000020B601002029
:1005F000500000204A0100201E0000207E02002042
:10060000180100204C0000200000204116000020AE
:10061000AC0100200E0000200F0000200800002088
:1006200000000020001001400200002000040040F3
:10063000120000200400002000880A2190FBF1FB3A
:10064000584602F0BEFB04460022164B02F0E2FAC6
:10065000CDE9000102F086FB1349088013480188A8
:100660004FF0804001F0D2FE104801884FF08040EA
:1006700001F0CEFE0E480078A0F1200A504602F0AC
:10068000D4F880460B48C0F8008008F14B0081B2D6
:10069000094801F0BBFE00BF0848007801283FF47C
:1006A00064AED2E50000E03F00000020040000201E
:1006B0000E0000200800002000040040160000206A
:1006C000704700BFFEE77047A3280ED1754909782F
:1006D00011B90121744A117074490A780978491CCA
:1006E000724B1970724988544FE03A281ED16E49F6
:1006F000097871B101216B4A117000216A4A1170A9
:100700006A490A780978491C684B19706849885405
:100710003BE064490978002937D064490A780978B0
:10072000491C624B1970624988542EE05D49097872
:1007300031B35E490A780978491C5C4B19705C49F1
:10074000885419460978491E594A515CAA291CD176
:10075000002105E0564A525C564B5A544A1CD1B20D
:10076000534A9278921C8A42F4DC0122524B1A704E
:1007700000224E4B1A704C4B1A704A4B1A7004E010
:1007800000214A4A1170484A1170704710B5402143
:100790004A4800F0E1FE40F22551484800F0E5FEED
:1007A00040B1464800F061FE4549087008460078AF
:1007B000FFF78AFF10BD10B540F22551414800F007
:1007C000D4FE18B33F4800F050FEC4B23E48008843
:1007D00010F4004F1AD13C480088B0F5167F0FDAAC
:1007E00039490888411C384A118038490C542A2C50
:1007F0000CD11046008840F400401146088010BD1E
:100800003148008840F400402F49088000BFF6E7D7
:1008100010B540212E4800F09FFE40F225512C4893
:1008200000F0A3FE60B32A4800F01FFEC4B22948BE
:10083000008810F4004F1ED126480088C82814DA1A
:1008400024490888411C234A118023490C54AA2CAE
:1008500011D11046008840F400401146088040F253
:1008600025511B4800F0ABFE10BD1A48008840F42B
:1008700000401849088040F22551154800F09FFEBD
:1008800000BFF1E710B50121144801F001FE10BDD1
:1008900000BFFEE700BFFEE700BFFEE770477047FE
:1008A0007047704714000020150000202000002031
:1008B0007A010020AC010020160000200038014021
:1008C00021000020004400401A000020B601002052
:1008D000004800401E0000207E020020000400406E
:1008E00000210020674A126842F48032654B1A608A
:1008F00000BF644A126802F40030491C10B9B1F517
:10090000A06FF6D15F4A126812F4003F01D00120B7
:1009100000E00020012842D15B4A126842F0100238
:10092000594B1A601A46126822F003021A601A46DE
:10093000126842F002021A60524A5268514B5A60E1
:100940001A4652685A601A46526842F480625A60E7
:100950001A46526822F47C125A601A46526842F4CF
:10096000E8125A601A46126842F080721A6000BF9C
:10097000444A126812F0007FFAD0424A526822F0CC
:100980000302404B5A601A46526842F002025A6013
:1009900000BF3C4A526802F00C02082AF9D17047A5
:1009A00010B5FFF79DFF10BD10B53648006840F048
:1009B000010034490860084640683449084031491C
:1009C000486008460068324908402E4908600846D9
:1009D000006820F4802008600846406820F4FE008B
:1009E00048604FF41F008860FFF7DAFF4FF00060A7
:1009F0002849086010BD10B5002100200022214BBD
:100A00005B6803F00C0121B1042906D0082928D124
:100A100007E0214B214C236027E01F4B1F4C236034
:100A200023E0184B5B6803F47010164B5B6803F40B
:100A30008032022303EB904022B9194B4343174CF9
:100A400023600DE00F4B5B6813F4003F04D0144BA0
:100A50004343124C236003E00F4B43430F4C23608E
:100A600003E00D4B0D4C236000BF00BF054B5B68DE
:100A7000C3F303130B4CE15C084B1B68CB40074CE2
:100A8000236010BD00100240002002400000FFF86B
:100A9000FFFFF6FE08ED00E000127A0024000020BF
:100AA00000093D0028000020094880470948004708
:100AB000FEE7FEE7FEE7FEE7FEE7FEE7FEE7FEE70E
:100AC000FEE7FEE704480549054A064B704700006B
:100AD000A90900083101000868050020680B002002
:100AE000680700206807002010B50446CA48844201
:100AF00008D10121042000F024FB0021042000F093
:100B000020FB46E0C548844208D10121082000F0BE
:100B100018FB0021082000F014FB3AE0C048844292
:100B200008D10121102000F00CFB0021102000F062
:100B300008FB2EE0BB48844208D10121202000F0B0
:100B400000FB0021202000F0FCFA22E0B64884429D
:100B500008D10121402000F0F4FA0021402000F0EB
:100B6000F0FA16E0B148844208D10121802000F05B
:100B7000E8FA0021802000F0E4FA0AE0AC48844260
:100B800007D10121801500F0DCFA0021A01500F04A
:100B9000D8FA10BD10B50121084600F0D2FA0021A4
:100BA000012000F0CEFA10BD2DE9F04102460025EB
:100BB0000026002000230024002791F803C00CF039
:100BC0000F0591F803C01CF0100F03D091F802C07C
:100BD0004CEA0505B1F800C01CF0FF0F31D01468D5
:100BE00000202BE04FF0010C0CFA00F3B1F800C02C
:100BF0000CEA03069E4220D183004FF00F0C0CFA42
:100C000003F7BC4305FA03FC4CEA040491F803C063
:100C1000BCF1280F06D14FF0010C0CFA00FCC2F811
:100C200014C00AE091F803C0BCF1480F05D14FF0A1
:100C3000010C0CFA00FCC2F810C0401C0828D1D3EB
:100C40001460B1F800C0BCF1FF0F34DD546800201F
:100C50002EE000F1080C4FF0010808FA0CF3B1F88F
:100C600000C00CEA03069E4221D183004FF00F0C16
:100C70000CFA03F7BC4305FA03FC4CEA040491F8B0
:100C800003C0BCF1280F05D100F1080C08FA0CF8DC
:100C9000C2F8148091F803C0BCF1480F07D100F1ED
:100CA000080C4FF0010808FA0CF8C2F81080401C3C
:100CB0000828CED35460BDE8F0814FF6FF71018063
:100CC000022181700421C1707047024600209368A0
:100CD0000B4201D0012000E00020704701468868E7
:100CE00080B2704702460020D3680B4201D0012039
:100CF00000E0002070470146C86880B2704701617B
:100D00007047416170470AB1016100E0416170477D
:100D1000C16070474FF480320A4382618161826111
:100D200082698269704702460020424B18684FF67C
:100D30008073184040EA021008433E4B1860704729
:100D40003D49C8617047F0B50A46002300240021E0
:100D5000002500F00046B6F1004F02D1354EF16992
:100D600001E0344E7168C0F3034583B200F44016CD
:100D7000B6F5401F08D121F070612E4E766826F03E
:100D800070662C4F7E6012E000F48016B6F5801F6E
:100D900006D1032606FA05F4A14341F0706106E08E
:100DA000460D360103FA06F6B14341F0706122B1F7
:100DB000460D360103FA06F6314300F00046B6F15F
:100DC000004F02D11B4EF16101E01A4E7160F0BD7F
:100DD00030B500228B071C0F0F2303FA04F2154BCA
:100DE00008338C1053F824309343124C08348D1080
:100DF00044F8253023468C1053F824308C07240FF8
:100E000000FA04F423430B4C08348D1044F82530C9
:100E100030BD0A490860704700080140000C0140DD
:100E2000001001400014014000180140001C014066
:100E3000002001400000014000002042DC00204270
:100E4000DB48006840F00100D94908600846406866
:100E5000D8490840D649486008460068D649084045
:100E6000D34908600846006820F4802008600846DE
:100E7000406820F4FE0048604FF41F00886070470F
:100E8000CB49096821F48031C94A116011460968CB
:100E900021F480211160B0F5803F03D0B0F5802FA0
:100EA0000ED106E0C249096841F48031C04A1160A0
:100EB00007E0BF49096841F4A021BD4A116000E084
:100EC00000BF00BF704710B501460022002300207C
:100ED0004A11012A02D1B64C236806E0022A02D147
:100EE000B34C236A01E0B24C636A01F01F02012493
:100EF00094401C4201D0012000E0002010BD70B5DC
:100F000000240025002600BF3120FFF7DCFF064645
:100F1000641CB4F5A06F01D0002EF5D03120FFF78E
:100F2000D2FF08B1012500E00025284670BD01462A
:100F300000209F4A106820F0F80040EAC1001060CD
:100F400070479E490860704702460020984B5868D9
:100F500020F47C1042EA01031843954B5860704717
:100F600096490866704701460020914A506820F073
:100F700003000843506070478D48406800F00C0043
:100F80007047014600208A4A506820F0F00008436C
:100F90005060704701460020854A506820F4E060A8
:100FA00008435060704701460020814A506820F491
:100FB000605040EAC1005060704729B17C4A527AC3
:100FC00002437B4B5A7206E0794A527AC343DBB242
:100FD0001A40774B5A72704779490860704701464A
:100FE0000020734A506820F4404008435060704726
:100FF0000021744A11706E4A82F82010012802D034
:10100000042808D103E001216E4A117004E0052193
:101010006C4A117000E000BF00BF70476A49086069
:1010200070476349096A0143614A11627047674921
:101030000860704730B500210022002400235C4D79
:101040006D6805F00C0121B1042905D0082923D1D0
:1010500005E05F4D056022E05D4D05601FE0544DE9
:101060006D6805F47012524D6D6805F480340225E8
:1010700005EB92421CB9574D554305600BE04C4DB2
:101080006D6815F4003F03D0524D5543056002E0F2
:101090004F4D5543056002E04D4D056000BF00BF58
:1010A000434D6D6805F0F00109094B4D6B5C056817
:1010B000DD4045603E4D6D6805F4E061090A464D2E
:1010C0006B5C4568DD408560394D6D6805F46051A5
:1010D000C90A414D6B5C4568DD40C560344D6D68A3
:1010E00005F44041890B3D4D6B5CC568B5FBF3F5DC
:1010F000056130BD29B12E4A526902432C4B5A6119
:1011000004E02B4A52698243294B5A61704729B146
:10111000274A92690243264B9A6104E0244A926965
:101120008243234B9A61704729B1214AD269024315
:101130001F4BDA6104E01E4AD26982431C4BDA611C
:10114000704729B11A4AD2680243194BDA6004E0A9
:10115000174AD2688243164BDA60704729B1144AA5
:1011600012690243124B1A6104E0114A1269824368
:101170000F4B1A6170471A49086070470F49C864DD
:1011800070470B49C87170470948406A40F0807049
:1011900007494862704701460020054A92680A42A2
:1011A00001D0012000E0002070470149887270479B
:1011B000001002400000FFF8FFFFF6FE0000424270
:1011C000D800424220100240800442423C04424285
:1011D00000127A0000093D0038000020480000207D
:1011E0004004424210B50446FC48844209D1012122
:1011F0008803FFF7A6FF00214FF48040FFF7A1FF0F
:1012000032E0F748844209D101214804FFF7A6FFE4
:1012100000214FF40030FFF7A1FF25E0F1488442A0
:1012200009D101218804FFF799FF00214FF48020A4
:10123000FFF794FF18E0EC48844209D10121C8046B
:10124000FFF78CFF00214FF40020FFF787FF0BE032
:10125000E648844208D101210805FFF77FFF0021FD
:101260004FF48010FFF77AFF10BD2DE9F04786B0EC
:1012700005460E460024A24600BFA1460027B089BD
:1012800000B100BF2F462C8A4CF6FF700440F08856
:1012900004432C82AC894EF6F3100440B0883189A7
:1012A0000843718908430443AC81AC8A4FF6FF4080
:1012B0000440B0890443AC8201A8FFF7BBFEC748D5
:1012C000874202D1DDF810A001E0DDF80CA0A8896A
:1012D00010F4004F08D00AEBCA0000EB0A10316886
:1012E0004900B0FBF1F807E00AEBCA0000EB0A1076
:1012F00031688900B0FBF1F86420B8FBF0F004011C
:101300002009642101FB1089A88910F4004F08D03E
:10131000322000EBC900B0FBF1F000F007000443FD
:1013200008E0322000EB09106421B0FBF1F000F07E
:101330000F0004432C8106B0BDE8F0874FF416512E
:10134000016000218180C18001810C214181002147
:101350008181704710B502460020108A4FF2FF03CA
:1013600018400B884C8823438C882343CC88234324
:101370001843108210BD0021018041808180C1800E
:10138000704721B1828942F40052828104E082894F
:101390004DF6FF731A4082817047F0B50346002472
:1013A000002600250020A1F510676A3F00D100BF8C
:1013B0001846C1F3421401F01F06012707FA06F58B
:1013C000012C01D10C3004E0022C01D1103000E0DE
:1013D00014301AB107682F43076002E00768AF4373
:1013E0000760F0BD10B51AB1838A0B43838204E015
:1013F000838ACC43A4B22340838210BD028A4FF675
:10140000F0731A400282028A0A430282704782897C
:101410004FF2FF731A40828182890A4382817047AA
:1014200021B1828942F00202828104E082894FF672
:10143000FD731A4082817047028A4FF6DF731A40AB
:101440000282028A0A430282704721B1028A42F470
:101450008042028204E0028A4BF6FF731A40028245
:101460007047C1F308028280704701468888C0F344
:1014700008007047818941F0010181817047028B2A
:10148000D2B20283028B42EA012202837047028BAE
:1014900002F47F420283028B0A430283704721B128
:1014A000828A42F02002828204E0828A4FF6DF7351
:1014B0001A408282704721B1828A42F010028282F1
:1014C00004E0828A4FF6EF731A408282704721B19E
:1014D000828A42F00802828204E0828A4FF6F77321
:1014E0001A408282704721B1828942F4004282818F
:1014F00003E08289C2F30E028281704721B1828AA1
:1015000042F40062828204E0828A4FF2FF731A4042
:1015100082827047828A4FF6FB731A408282828AE7
:101520000A438282704721B1828A42F0020282829B
:1015300004E0828A4FF6FD731A40828270470246A9
:101540000020B1F5007F00D100BF13880B4201D00D
:10155000012000E00020704701F40072B2F5007F26
:1015600000D100BFCA430280704770B50246002414
:10157000002300250020A1F510666A3E00D100BFBF
:10158000C1F3421501F01F03012606FA03F3012DF2
:1015900002D19689334006E0022D02D1168A3340EB
:1015A00001E0968A33400C12012606FA04F41688EC
:1015B000344013B10CB1012000E0002070BD10B523
:1015C00000220023A1F510646A3C00D100BF0A127A
:1015D00001249440A3B2DC43048010BD00380140D4
:1015E0000044004000480040004C004000500040D3
:1015F00036490143364A1160704770B50021002317
:101600000F22C4784CB3324C246804F4E064C4F56F
:10161000E0644FEA1421C1F1040322FA01F2447894
:1016200004FA03F1847804EA020444EA01014FEA6F
:101630000111284C0678A155047804F01F054FF0DD
:10164000010404FA05F405784FEA65154FF0E02629
:1016500006EB8505C5F8004109E0047804F01F0594
:101660000124AC401C4D0678761145F8264070BD2B
:101670001A4A0A4002431A4B1A60704741B1194A8C
:10168000126842EA00024FF0E023C3F8102D07E091
:10169000144A126822EA00024FF0E023C3F8102D2A
:1016A0007047042808D14FF0E021096941F0040196
:1016B0004FF0E022116107E04FF0E021096921F0CD
:1016C00004014FF0E0221161704700000000FA05AC
:1016D0000CED00E000E400E080E100E080FFFF1F8F
:1016E00008ED00E010ED00E010B50446FF4884422C
:1016F00008D10121C014FFF724FD0021E014FFF7F9
:1017000020FDC4E0B4F1804F08D101210846FFF765
:1017100025FD00210120FFF721FDB8E0F4488442B7
:1017200008D101210220FFF719FD00210220FFF757
:1017300015FDACE0EF48844208D101210420FFF7F9
:101740000DFD00210420FFF709FDA0E0EA488442D6
:1017500008D101210820FFF701FD00210820FFF733
:10176000FDFC94E0E548844208D101211020FFF7F8
:10177000F5FC00211020FFF7F1FC88E0E0488442EE
:1017800008D101212020FFF7E9FC00212020FFF7EC
:10179000E5FC7CE0DB48844208D101214014FFF7DE
:1017A000D0FC00216014FFF7CCFC70E0D6488442E6
:1017B00009D10121C804FFF7C4FC00214FF4002027
:1017C000FFF7BFFC63E0D148844209D1012108053D
:1017D000FFF7B7FC00214FF48010FFF7B2FC56E092
:1017E000CB48844209D101214805FFF7AAFC00211A
:1017F0004FF40010FFF7A5FC49E0C648844208D129
:1018000001214020FFF7AAFC00214020FFF7A6FCA1
:101810003DE0C148844208D101218020FFF79EFCB1
:1018200000218020FFF79AFC31E0BC48844208D1B7
:1018300001218015FFF792FC0021A015FFF78EFC17
:1018400025E0B748844209D101210804FFF779FC5B
:1018500000214FF48030FFF774FC18E0B148844257
:1018600009D101214804FFF76CFC00214FF400303E
:10187000FFF767FC0BE0AC48844208D101218804E3
:10188000FFF75FFC00214FF48020FFF75AFC10BDEA
:1018900000220288954B98420ED09A4B98420BD06A
:1018A000B0F1804F08D0924B984205D0914B9842AE
:1018B00002D0914B984204D14FF68F731A404B8857
:1018C0001A438E4B984207D08D4B984204D04FF666
:1018D000FF431A40CB881A4302808B8883850B888C
:1018E0000385824B98420BD0864B984208D08C4B94
:1018F000984205D08B4B984202D08B4B984201D135
:101900000B7A038601238382704770B5002400227E
:101910000023058C4FF6FE7635400584028C8388C3
:10192000048B4FF68F752C40B51E2C400D882C4330
:10193000751E2A400D892A434D882A436B4DA842C3
:101940000BD0704DA84208D0754DA84205D0754DFA
:10195000A84202D0744DA84213D14FF6F7752A4021
:101960004D892A434FF6FB752A408D882A434FF64E
:10197000FF652B404FF6FF552B408D892B43CD89BA
:101980002B4383800483CD888586028470BD70B527
:10199000002400220023058C4FF6EF7635400584A5
:1019A000028C8388048B48F6FF752C404FF6FF4568
:1019B0002C400D882D0644EA15444FF6DF752A4069
:1019C0000D892D0542EA15424D882D0542EA154242
:1019D000464DA84202D04B4DA8421BD14FF67F7511
:1019E0002A404D892D0542EA15424FF6BF752A401F
:1019F0008D882D0542EA15424FF6FF352B404FF2F8
:101A0000FF752B408D89AD0443EA1543CD89AD04A4
:101A100043EA154383800483CD880587028470BD23
:101A200070B5002400220023058C4FF6FF66354078
:101A30000584028C8388848B4FF68F752C404FF67B
:101A4000FC752C400D882C434FF6FF552A400D891C
:101A50002D0642EA15424D882D0642EA1542234DD5
:101A6000A84202D0274DA8421BD14FF2FF752A4051
:101A70004D892D0642EA15424FF6FF352A408D88E2
:101A80002D0642EA15424EF6FF752B404DF6FF75C6
:101A90002B408D892D0543EA1543CD892D0543EA59
:101AA000154383808483CD888587028470BD70B59B
:101AB000002200230024058C4EF6FF763540058475
:101AC000038C8488828B48F6FF752A404FF6FF45C9
:101AD0002A400D882D0642EA15424DF6FF752B402F
:101AE0000D892D0743EA15434D881FE0002C014066
:101AF0000004004000080040000C004000100040BE
:101B00000014004000340140004C014000500140EE
:101B10000054014000180040001C0040002000401C
:101B20000040014000440140004801402D0743EAC5
:101B30001543F94DA84202D0F84DA84206D14BF604
:101B4000FF752C408D89AD0544EA1544848082835D
:101B5000CD88A0F84050038470BD828B4FF2FF33D4
:101B60001A408283828B0B0642EA134282837047BB
:101B7000F0B50C461546002200210026078C4EF6D3
:101B8000FF7C07EA0C070784828B018C27073E0C39
:101B900040F6FF473A402F0642EA17421F0742EA43
:101BA0001742DD4FB8420ED0DC4FB8420BD0B0F137
:101BB000804F08D0DA4FB84205D0DA4FB84202D091
:101BC000D94FB84206D14DF6FF77394046F48057D9
:101BD000394305E047F6FF57394044F4805739430D
:101BE00082830184F0BD828B4FF6F3731A408283A7
:101BF000828B0A4382837047F0B50C46154600225B
:101C000000210026078C4FF6FF6C07EA0C070784BB
:101C1000828B018C27063E0C4FF60C773A401F054D
:101C200045EA17473A43BC4FB8420ED0BB4FB842C3
:101C30000BD0B0F1804F08D0B94FB84205D0B94FA2
:101C4000B84202D0B84FB84206D14FF6FF573940DC
:101C500046F48077394305E04FF2FF57394044F4AA
:101C60008077394382830184F0BD028B4FF2FF33CA
:101C70001A400283028B0B0642EA1342028370472A
:101C8000F0B50C461546002200210026078C4FF6C1
:101C9000EF7C07EA0C070784028B018C27053E0CBA
:101CA00040F6FF473A401F0742EA17422F0642EA32
:101CB0001742994FB8420ED0984FB8420BD0B0F1AE
:101CC000804F08D0964FB84205D0964FB84202D008
:101CD000954FB84206D14FF6DF77394046F01007EE
:101CE000394305E04FF65F77394044F01007394338
:101CF00002830184F0BD028B4FF6F3731A40028316
:101D0000028B0A4302837047F0B50C461546002249
:101D10000021068C4FF6FE773E400684028B018C34
:101D20004FF60C7632401E0545EA164632437A4E8F
:101D3000B0420ED0794EB0420BD0B0F1804F08D0F7
:101D4000774EB04205D0774EB04202D0764EB042C8
:101D500006D14FF6FD76314044F00106314305E0EF
:101D60004FF6F576314044F0010631430283018499
:101D7000F0BD70B505460C46674885420ED06748F1
:101D800085420BD0B5F1804F08D06548854205D01B
:101D90006448854202D06448854200D100E000BF1B
:101DA000208850B92389A28861882846FFF7ACFFB4
:101DB000E1882846FFF79FFF25E0208804280AD104
:101DC0002389A28861882846FFF75AFFE1882846C0
:101DD000FFF74BFF17E0208808280AD12389A28843
:101DE00061882846FFF708FFE1882846FFF7FBFED9
:101DF00009E02389A28861882846FFF7B9FEE188B7
:101E00002846FFF7AAFE70BD2DE9F04105460C46B5
:101E100000260127608808B9022600E00026A08875
:101E2000012801D1022700E001272088A0B92389D9
:101E3000A28861882846FFF767FFE1882846FFF7F8
:101E40005AFF23893A4631462846FFF719FFE188B1
:101E50002846FFF70AFF13E02389A28861882846F5
:101E6000FFF70EFFE1882846FFF7FFFE23893A4679
:101E700031462846FFF748FFE1882846FFF73BFF39
:101E8000BDE8F0810A884B881A438B881A43CB88B7
:101E90001A430B891A434B891A438B891A43A0F8BA
:101EA000442070474FF6FF71818000210180C1807E
:101EB0004180017270470021018041808180C18092
:101EC000018141818181C181704700210180418070
:101ED000012181800021C1800181704700210180A2
:101EE00041808180C180018141818181704721B120
:101EF000028842F00102028004E002884FF6FE737D
:101F00001A400280704789B1B0F8442042F4004280
:101F1000A0F8442010E00000002C014000340140F3
:101F20000004004000080040000C0040B0F84420CD
:101F3000C2F30E02A0F84420704710B51AB183898D
:101F40000B43838104E08389CC43A4B22340838183
:101F500010BD8182704741EA0203A0F84830704703
:101F600010B51AB183890B43838104E08389CC4384
:101F7000A4B22340838110BD01894FF6F87211404D
:101F8000018170470A46002101894FF68F7319407D
:101F900011430181704730B504460D46294620465D
:101FA000FFF7F0FF208940F00700208130BD2DE9C8
:101FB000F04104460D4616461F46602D06D13B46AD
:101FC000012231462046FFF75BFE05E03B46012239
:101FD00031462046FFF798FE29462046FFF7D2FFFC
:101FE000208940F007002081BDE8F08130B50C4623
:101FF00000210189C9B21D0642EA1545254329433E
:10200000018130BD2DE9F04105460E461746984640
:10201000002443463A4631462846FFF7E7FF2C891D
:102020004FF6F8710C4044F007044FF68F710C40E6
:1020300044F070042C81BDE8F081F0B504460D46F3
:1020400016461F463B46324629462046FFF7CEFF3E
:10205000208940F480402081F0BD01858282704754
:102060000A46002101884FF68F7319401143018001
:102070007047F0B50C4615461E460021002200238D
:102080000189028B038C4FF6F877394021434FF6D4
:10209000FC473A4040F201173A434FF6DD773B40A8
:1020A000370545EA17473B43018102830384F0BDAE
:1020B0000A460021018B4FF68F73194011430183AB
:1020C00070470A460021018B48F6FF73194013063A
:1020D00041EA1341018370470A460021818B4FF684
:1020E0008F7319401143818370470A460021818B09
:1020F00048F6FF731940130641EA13418183704784
:1021000021B1028842F08002028004E002884FF68A
:102110007F731A400280704721B1828842F0040226
:10212000828004E082884FF6FB731A4082807047F9
:1021300021B1828842F00802828004E082884FF652
:10214000F7731A408280704721B1828842F0010201
:10215000828004E082884FF6FE731A4082807047C6
:102160000A460021018B4FF6F77319401143018392
:1021700070470A460021018B4FF2FF731940130686
:1021800041EA1341018370470A460021818B4FF6D3
:10219000F77319401143818370470A460021818BF0
:1021A0004FF2FF731940130641EA134181837047D0
:1021B0000A460021018B4FF6FB731940114301833E
:1021C00070470A460021018B4FF6FF331940130672
:1021D00041EA1341018370470A460021818B4FF683
:1021E000FB7319401143818370470A460021818B9C
:1021F0004FF6FF331940130641EA134181837047BC
:102200000A460021018B4FF67F7319401143018369
:1022100070470A460021018BC1F30E01130641EA03
:102220001341018370470A460021818B4FF67F736B
:1022300019401143818370470A460021818BC1F305
:102240000E01130641EA1341818370470A460021BB
:10225000018C4FF6FD7319401143018470470A4603
:102260000021018C4FF6F773194011430184704728
:102270000A460021018C4FF6DF731940130541EA2D
:102280001341018470470A460021018C4FF67F7389
:102290001940130541EA1341018470470A460021A1
:1022A000018C4FF6FF531940130641EA1341018494
:1022B00070470A460021018C4FF2FF731940130644
:1022C00041EA1341018470470A460021018C4DF612
:1022D000FF731940130741EA13410184704730B579
:1022E000002301248C40A3B2048CDD43ADB22C400A
:1022F0000484048C02FA01F5ADB22C43048430BD91
:1023000030B5002304248C40A3B2048CDD43ADB26D
:102310002C400484048C02FA01F5ADB22C430484F1
:1023200030BD70B503460020002418461830012542
:102330008D40ACB21D8CE643B6B235401D8409B168
:10234000082909D100EB6100056825F070050560DA
:102350000568154305600CE00D1FADB200EB65008C
:10236000056825F4E04505600568160645EA16454A
:10237000056070BD21B1028842F00202028004E0D3
:1023800002884FF6FD731A400280704721B102881F
:1023900042F00402028004E002884FF6FB731A4008
:1023A0000280704721B1828842F08002828004E07E
:1023B00082884FF67F731A408280704702884FF6FA
:1023C000F7731A40028002880A43028070478288AD
:1023D0004FF68F731A40828082880A43828070474A
:1023E00002894FF6F8731A40028102890A4302817A
:1023F000704702894FF67F731A40028102890A43AF
:10240000028170478184704781857047818670475B
:102410000187704781877047A0F840107047028895
:102420004FF6FF431A40028002880A430280704739
:102430000146888E70470146088F70470146888F95
:1024400070470146B1F8400070470146888C7047DC
:102450000146088D704702460020138A0B4201D0C6
:10246000012000E000207047CA430282704730B567
:102470000246002000230024158A05EA01039589FD
:1024800005EA010413B10CB1012000E0002030BDC9
:10249000CA4302827047000000BF0100A0F10100A2
:1024A000FBD1704708B5FEF77FFA01211020FEF737
:1024B0002EFE0120ADF8000010208DF8030003204F
:1024C0008DF8020069460248FEF76EFB08BD000069
:1024D0000010014030B587B005460C4601210420AC
:1024E000FEF715FE01210820FEF711FE01218803E9
:1024F000FEF70DFE01214804FEF716FE01218804B7
:10250000FEF712FE01210846FEF701FE4FF40070AF
:10251000ADF8180003208DF81A0018208DF81B0064
:1025200006A96B48FEF740FB4FF48060ADF8180039
:1025300004208DF81B0006A96548FEF735FB0295BF
:102540000020ADF80C00ADF80E00ADF81000ADF8AD
:1025500014000C20ADF8120002A95E48FEF785FEBB
:1025600001215C48FEF70DFF012240F22551594838
:10257000FEF713FF40215748FEF7EEFF4FF4C0600F
:10258000FFF736F825208DF8040000208DF80500AF
:102590008DF8060001208DF8070001A8FFF72DF83F
:1025A0000420ADF8180003208DF81A0018208DF8CB
:1025B0001B0006A94648FEF7F7FA0820ADF81800F8
:1025C00004208DF81B0006A94148FEF7EDFA02949D
:1025D0000020ADF80C00ADF80E00ADF81000ADF81D
:1025E00014000C20ADF8120002A93B48FEF73DFE96
:1025F00001213948FEF7C5FE012240F22551364837
:10260000FEF7CBFE40213448FEF7A6FF4FF4C06032
:10261000FEF7EEFF26208DF8040001208DF805005E
:1026200000208DF8060001208DF8070001A8FEF7B4
:10263000E4FF4FF48060ADF8180003208DF81A0015
:1026400018208DF81B0006A92448FEF7ADFA4FF4B8
:102650000060ADF8180004208DF81B0006A91F4883
:10266000FEF7A2FA4FF4E13002900020ADF80C0022
:10267000ADF80E00ADF81000ADF814000C20ADF868
:10268000120002A91648FEF7F0FD01211448FEF7DA
:1026900078FE012240F225511148FEF77EFE4021CE
:1026A0000F48FEF759FF4FF4C060FEF7A1FF272047
:1026B0008DF8040002208DF8050000208DF806003A
:1026C00001208DF8070001A8FEF797FF07B030BD85
:1026D000000801400038014000440040000C014067
:1026E0000048004030B589B004460D460121084637
:1026F000FEF71AFD01210220FEF716FD012104203C
:10270000FEF705FD01214020FEF701FD01210846ED
:10271000FEF7FDFC4320ADF8200018208DF82300C3
:1027200003208DF8220008A94548FEF73DFA0F2046
:10273000ADF8200010208DF8230003208DF8220032
:1027400008A94048FEF730FAADF81840681E80B27C
:10275000ADF814000020ADF81A00ADF8160005A978
:102760004FF08040FFF794F805A93748FFF790F83D
:102770006020ADF804000120ADF806003348008861
:1027800000EB80004004000CADF80A000020ADF81A
:102790000C0001A94FF08040FFF7B7F86020ADF8BA
:1027A00004000120ADF806002948008800EB8000F5
:1027B0004004000CADF80A000020ADF80C0001A99F
:1027C0004FF08040FFF7E3F86020ADF804000120EF
:1027D000ADF806001F4800684B3080B2ADF80A0023
:1027E0000020ADF80C0001A91748FFF78EF808216A
:1027F000C806FFF7B5FC0821C806FFF7BAFC082198
:102800001148FFF7ADFC01218807FFF779FC012192
:102810000D48FFF775FC01218807FFF768FB0121D0
:102820000948FFF764FB09B030BD102801DD102016
:1028300004E010F1100F01DA6FF00F007047000094
:102840000008014000180140000400400000002082
:1028500002000020080000200246134610E0107815
:102860002A2805D01078202802DB10787A2801DD8C
:10287000FF20704710782C2801D1481EC1B2521C8D
:102880000029ECD1D01AC0B2F3E710B502460120FE
:1028900000E050430B00A1F10104E1B2F9D110BDF9
:1028A0002DE9F34F81B007463C464FF0000A002067
:1028B000009081460026804628E020782D2802D10D
:1028C00048F00208641C20782C2802D020782A289E
:1028D00000D11CE020782E2803D148F00108641CA8
:1028E00009E02078392802DC2078302803DA4FF01C
:1028F000000900260BE018F0010F02D0701CC6B2D0
:1029000003E009F1010000F0FF09641CD5E700BFF6
:1029100018F0020F00D07F1C002511E0A9F1010082
:10292000401BC1B20A20FFF7B0FF795D303900FBD0
:1029300001AA6420BAFBF0F100FB11AA681CC5B221
:102940004D45EBDB062E00DD0626029806700025BD
:1029500010E0701E401BC1B20A20FFF796FF09F17C
:1029600001012944795C3039009A00FB0120009074
:10297000681CC5B2B542ECDB31460A20FFF785FF83
:1029800000990AFB001B18F0020F01D0CBF1000BDD
:102990005846BDE8FE8F2DE9F843044688466FA1EE
:1029A000404600F0E7F8074601213846FFF754FF9C
:1029B0000646FF2E1FD0B8196946FFF771FF814602
:1029C0009DF800100A20FFF760FFB9FBF0F542F216
:1029D0001070B5FBF0F020706420B5FBF0F06421BE
:1029E000B0FBF1F201FB120060706420B5FBF0F166
:1029F00000FB1150A07003213846FFF72DFF06465B
:102A0000FF2E0BD0B8196946FFF74AFF0546642030
:102A100068430621B0FBF1F0C4F8030005213846F5
:102A2000FFF71AFF0646FF2E0BD0B8196946FFF7CD
:102A300037FF0546642068430621B0FBF1F0C4F877
:102A4000070007213846FFF707FF0646FF2E16D07E
:102A5000B8196946FFF724FFA4F80B009DF80000A1
:102A600003280CDA9DF80000C0F10300C1B20A206F
:102A7000FFF70BFFB4F80B104843A4F80B00BDE8B8
:102A8000F883A5280ED13749097841F08001354AED
:102A9000117035490A780978491C334B197033494C
:102AA000885459E05A281DD12E49097811F0800F19
:102AB00009D000212C4A11702A49097821F04001DF
:102AC000284A117007E028490A780978491C264BE2
:102AD0001970264988542349097821F08001214A38
:102AE000117039E020490A780978491C1E4B197089
:102AF0001E4988541B49097821F08001194A117038
:102B00001A4909781A461278914225D117498978CD
:102B1000174A118011460988090209B21180134928
:102B2000C978B2F900201143114A11801146098871
:102B300011F4004F07D011460988C1F30E01494234
:102B400009B2118005E00A490988C1F30E01084A5B
:102B500011800021044A117070470000474E524D09
:102B6000430000004E0000204F000020D60400204B
:102B70004C00002030B505460B462A4613F8014BA1
:102B800012F8010B08B1A042F8D01CB1002802D005
:102B90006D1CF1E7284630BD704770477047754699
:102BA00000F028F8AE4605006946534620F00700BD
:102BB000854618B020B5FDF785FFBDE820404FF0F1
:102BC00000064FF000074FF000084FF0000B21F017
:102BD0000701AC46ACE8C009ACE8C009ACE8C009E4
:102BE000ACE8C0098D4670470446AFF3008020462C
:102BF000FDF7E7FA004870470805002000487047D5
:102C00000C05002001491820ABBEFEE7260002009B
:102C10007047000010B591EA030F48BF83F00043EE
:102C200000F14281841A71EB030C05D2121943EBB7
:102C30000C03001B61EB0C01DFF824E14FEA115497
:102C4000A4EB135C1EEA430F18BF9EEA445F73D0E7
:102C500023EA0E03DCF1200E21EA045143F4801331
:102C600032D322FA0CFE10EB0E0023FA0CFE41EBDD
:102C70000E01CCF1200E03FA0EFE10EB0E0051F106
:102C80000001B1F5801FCCF1200E32D201EB0451CE
:102C900012FA0EF2BDE8104058BF7047401C38BF12
:102CA0005FEA420218BF7047002814BF20F00100FD
:102CB00041F100014FEA410313F5001F38BF70478F
:102CC000A1F1C04100F0E2B8012A43EB0302ACF1EC
:102CD000200CDCF11F0E32BF4FF0000E23FA0CF374
:102CE00010EB030041EB0451B4EB115FD0D0A1EB2A
:102CF000045101F5801149085FEA300001EB0451ED
:102D00000ED350F1000038BF12FA0EFE08D1BDE814
:102D10001040C9E7401C38BF5FEA4202CAD1C3E78E
:102D2000BDE810404FEA410313F5001F38BF70475C
:102D3000A1F1C04100F0AAB89EEA445F08D011EAB0
:102D40005E0FBDE8104004BF01F000410020704755
:102D5000BDE8104070B500F04BF800BF64FBBE3E0C
:102D60000000E0FF4FEA41034FEA5353A3F58063AD
:102D7000D3F11E03C8BFD3F1210C0CDD4FF000428C
:102D800042EAC12242EA505232FA03FC8CEAE17C68
:102D9000ACEBE1707047102BC4BF0020704703F507
:102DA000787CBCF1FF3F04D06FF0004282EA210042
:102DB000704770B500F01CF84992248000207047DD
:102DC000F2E710F0004248BF4042B0FA80F310FA38
:102DD00003F10AD0C3F11D0303F580634FEA4150AC
:102DE00002EB035202EBD12170474FF00000704715
:102DF0000EF1020E2EF0030E5EF8046B364205D47F
:102E0000012A43EB030515F5001F12D8012841EBF9
:102E1000010C1CF5001F0CD80ED14FEAD17C15F522
:102E2000001F0CEB4C0C0CF1020C08BF4CEBD37CDC
:102E300004E04FF0080C01E04FEAD37C0CEB4C05AA
:102E400026FA05F606F00706B6F1040C06D20EEBDC
:102E5000860CBDE870404CF0010C6047DFE80CF0D8
:102E6000090B02024FF000414FF00000A1F50021D4
:102E700070BD19461046012851EB010418BFD4F566
:102E8000001484BF002001F0004170BD0808A0F5C7
:102E900000114FEA3101704710B591EA030F48BFA6
:102EA00083F000433FF5BEAE841A71EB030C07D2EA
:102EB00012198CF0004C43EB0C03001B61EB0C016E
:102EC000DFF8A4E14FEA1154A4EB135C1EEA430FB0
:102ED00018BF9EEA445F00F0B08023EA6E035242BE
:102EE00021EA0451C3EB6E0338BF5B1EDCF1200EF8
:102EF00025D322FA0CFE10EB0E0043FA0CFE41EB38
:102F00000E01CCF1200E03FA0EFE10EB0E0051F173
:102F10000001CCF1200E29D412FA0EF201EB04517B
:102F2000BDE8104058BF7047401C1CBFB2F1004FB5
:102F3000704700280CBF491C20F00100704712EBBD
:102F4000020E43EB030218BF4FF0010E4EEA42029D
:102F5000ACF1200CDCF11E0E54D943FA0CFE10EB40
:102F60000E0051F1FF31CCF11E0ED5D50EF1010E40
:102F700012FA0EFE404141EB010101EB445C5FEAB5
:102F80005C5C10D910EBDE7001EB045138BFBEF170
:102F9000004FBDE8104018BF704700280CBF491C07
:102FA00020F00100704730D24FEAD42C11F5001107
:102FB00024F400641BD0B1FA81F20B3AA41AA41EC7
:102FC000D2F12003914030FA03F31943904001EB12
:102FD000CC71002C01EB0451BDE81040A8BF704734
:102FE00001F1C0414FF0000001F000417047B0FA1C
:102FF00080F310FA03F100D110BDE41A173C480524
:10300000C90AE4E701EB045110BD491001EB04517A
:10301000BDE810404FEA300002E04FF00001704779
:103020004A0008BF0042F8D0B2F5001F28BF704721
:1030300001F000414FF0000070479EEA445F07D066
:1030400011EA5E0FBDE8104004BF00210020704768
:10305000BDE8104070B5FFF7CBFE00BF40DFF63E85
:1030600083F00041104670470000E0FF4FF47F0CF2
:103070001CEAD0121EBF1CEAD11392EA0C0F93EA8D
:103080000C0F00F0858090EA010F48BF42F4807277
:1030900040F4000C41F400002CF07F4120F07F4010
:1030A00000B58142A2EB03020FF2081CACEB504EBC
:1030B000C0F100009EF800E04FEA4E0E00FB0EFC4F
:1030C00038BF49004FEA2C1C02F5FA020CFB0EF344
:1030D0004FEACE1E4FEA112C4FEAC1210EEB635E80
:1030E00042EB22420EFB0CFC4FEA1C5300FB031187
:1030F0004FEA112C4FEA01310EFB0CFC4FEADC4C7D
:1031000000FB0C11C14228BF09184CEB03335DF8DA
:1031100004EB10EB410143EBC250B2F57C0F38BF1A
:10312000704729D512F0F00F1CBF00F1C04000F02D
:1031300000407047008182838485868788898B8CD4
:103140008D8E8F919293959697999A9C9D9FA0A210
:10315000A3A5A7A8AAACAEB0B2B3B5B7B9BCBEC060
:10316000C2C5C7C9CCCED1D4D7D9DCDFE2E6E9EC01
:10317000F0F3F7FAFE0000004FEA400C0CF1807CFF
:10318000BCF17E4F28BF7047B0F1C04000F095B849
:1031900090EA010F0CEAD11348BF42F480726245F5
:1031A00038BF634507D213F47F0F16D080EA0100C1
:1031B00000F00040704710B500F032F8097EFC3E88
:1031C00000F005B880EA010000F00040704780EA96
:1031D000010000F0004000F070B812F47F0F04BF4F
:1031E0000248704780EA010000F067B80000C07F25
:1031F00010F0004148BF4042B0FA80F310FA03F2E9
:10320000C3F19D030BD051EAC35101EB12205306C9
:1032100038BF704700F1010008BF20F0010070477F
:103220000EF1020E2EF0030E5EF8044B244204D47D
:103230004FEA4102B2F17F4F11D84FEA4003B3F198
:103240007F4F0CD80ED14FEAD07CB2F17F4F0CEB00
:103250004C0C0CF1020C08BF4CEBD17C04E04FF09D
:10326000080C01E04FEAD17C0CEB4C0324FA03F488
:1032700004F00704B4F1040C06D20EEB840CBDE894
:1032800010404CF0010C6047DFE80CF00708020228
:103290004FF00040A0F5800010BD0846420018BF66
:1032A000D2F1807288BF00F0004010BD10B5FFF76A
:1032B000A5FC4FF00001016010BDFF2141EAD05094
:1032C000C0057047E43200080000002050000000F4
:1032D0006C0100083433000850000020180B000077
:1032E00088010008000000000A0000000000000043
:1032F00000000000000000000000000000000000CE
:10330000000000000000000000A24A0400000000CD
:103310000000000001020304060708090000000085
:103320000102030401020304060708090204060857
:043330000000000099
:0400000508000131BD
:00000001FF
