:020000040800F2
:10000000B0070020190B0008D9060008DB0600081D
:10001000F5080008F9080008FD08000800000000C5
:1000200000000000000000000000000001090008BE
:10003000030900080000000005090008070900087E
:10004000330B0008330B0008330B0008330B000898
:10005000330B0008330B0008330B0008330B000888
:10006000DF060008330B0008330B0008330B0008D1
:10007000330B0008330B0008330B0008330B000868
:10008000330B0008330B0008330B0008330B000858
:10009000330B0008330B0008330B0008330B000848
:1000A000330B0008330B0008330B0008330B000838
:1000B000330B0008E9080008330B0008330B000875
:1000C000330B0008330B0008330B0008330B000818
:1000D000330B0008EF07000819080008750800082E
:1000E000330B0008330B0008330B0008330B0008F8
:1000F000330B0008330B0008330B0008330B0008E8
:10010000330B0008330B0008330B0008330B0008D7
:10011000330B0008330B0008330B0008B92C000820
:10012000330B0008330B0008330B0008330B0008B7
:10013000DFF80CD003F078F9004800473B020008D4
:10014000B007002070B502460B46FF24FF2509E0EA
:1001500012F8010B80EA0401FF48405C80EA0504C4
:10016000FE48455C1800A3F10106B3B2F0D145EAA0
:10017000042070BD70B504460D46E1B2F84801F0A8
:100180009AF900BFF648008810F0800FFAD0204698
:1001900070BD00BFF248008810F0200FFAD0F1487F
:1001A0000088C0F308007047F8B5EF49D1F80700A0
:1001B00002F0A3FF0746ED49384602F0D9FD074695
:1001C000064602F0DCFF04464523024600930B4638
:1001D000E7A003F069F9E449D1F8030002F08DFFCC
:1001E0000746E249384602F0C3FD0746064602F0DC
:1001F000C6FF04464E23024600930B46E2A003F0DE
:1002000053F9D949B1F80B0002F077FF0746E449EA
:10021000384602F0ADFD0746064602F0B0FF044640
:1002200002460B46DFA003F03FF9CF4883784278BF
:100230000178E1A003F038F9F8BD88B002F06AFB5C
:1002400002F012FB02F024FAE248006881B2E248B0
:1002500002F0A4F9E148006881B2DF4802F0A0F999
:10026000A520DF4908705A2048701A2088700120A4
:10027000C8700321DB4800F06EFD1FE2DA480088F9
:1002800010F4004F54D0D8480088C0F30E000690F8
:100290004FF0000A09E0D54810F80A00D44901F8E7
:1002A0000A000AF101001FFA80FA06988245F2DB83
:1002B0000020CD490880CE49AB4802F0F0FCAA48A6
:1002C000D0F80300000EC6490871A748D0F8030013
:1002D000000C4871A448D0F80300000A8871A248B5
:1002E000D0F80300C871A048D0F80700000E0872CB
:1002F0009D48D0F80700000C48729B48D0F80700D2
:10030000000A88729848D0F80700C87296480078AA
:10031000087395484078487393488078887392486A
:10032000B0F80B000012C8738F48B0F80B000874C7
:10033000B0480078132812DDAF48807CA849487483
:10034000AD48407C8874AC48007CC874AA48C07B27
:1003500008750120A94908700020A6490870A8481E
:100360000078012889D10020A5490870A548C078E7
:10037000A5490870084600784E2807D10A20A349ED
:1003800008600846006802F004FB97E19E48007888
:100390004D2807D11E209D4908600846006802F0DC
:1003A000F8FA8BE198480078412804D19748006812
:1003B00002F0EFFA82E194480078422804D1934891
:1003C000006802F0F1FA79E18F480078532805D1EE
:1003D00002F0D7FA00208D4908606FE18A48007862
:1003E00047284FD100207E4948757B4802F0E8F845
:1003F000C2B20592784802F0E6F8C3B20493DDE990
:10040000043202EB030101EBD1724FEA6202D2F136
:10041000960001D4024600E04242154670498D75AF
:1004200017216F48FFF78EFE0446C01704EB1060DB
:10043000000A6B49C87517216948FFF783FE044617
:10044000C01704EB10600012A4EB0020644908768A
:10045000AA2048764FF0000A10E0614810F80A1010
:100460003F4801F028F800BF80213D4801F091F895
:100470000028F9D00AF101001FFA80FABAF11A0F28
:10048000EBD31BE160480078592804D1032155487B
:1004900000F05FFC12E15C4800785A2804D1032187
:1004A000504800F058FC09E15748007851280AD11B
:1004B000494802F085F80446601E84B22146464849
:1004C00002F06CF8FAE0504800784C280AD1424813
:1004D00002F076F80446601C84B221463E4802F0E1
:1004E0005DF8EBE04848007852280AD13A4802F01B
:1004F0006AF80446601E84B22146374802F050F87C
:10050000DCE04148007856280AD1334802F05BF815
:100510000446601C84B221462F4802F041F8CDE029
:1005200039480078492873D138480068401C374959
:100530000860084600680D2801D80D20086033487F
:100540000068282802D92820304908602F48006810
:1005500002F01FFAB2E05BE0000000200001002082
:100560000038014004380140900300200050C34788
:100570004C6F6E6769747564653A252E3566202563
:1005800031632020200000004C617469747564653B
:100590003A252E35662025316320202000000000FA
:1005A00000007A4453706565643A252E33666B6D9E
:1005B0002F682020202020005554432054696D6569
:1005C0003A253032643A253032643A25303264209C
:1005D000202000000002002000040040040200204F
:1005E000AE0200200010014016020020C8020020C8
:1005F0002C030020190200209D0300201802002077
:1006000013020020A40200200C0200200802002097
:100610002B480078442813D12A480068401E2949F5
:10062000086008460068002805D9084600680D28BB
:1006300001D2002008602348006802F0AAF93DE0DA
:100640001F480078402803DC1D480078A0F1200BEB
:10065000BBF1000F2ED0CDF808B0BBF1000F01DBCD
:10066000029901E002994942084602F04BFD064614
:100670000022154B02F061FC144A154BCDE9000134
:1006800002F05BFC044602460B460020114902F0D2
:10069000C5FC804602F054FD0390BBF1000F04DD61
:1006A0008620039902F0CCF903E08620039902F03A
:1006B000D2F902E0122002F06CF900BFDEE5000082
:1006C0000C020020080200200000F83F4AD8124D1A
:1006D000FB21094000806640704700BFFEE710B56F
:1006E000042001F0A7F801281ED101F0B4F80A2077
:1006F00001F0B3FF0421844800F011FB68B9012127
:10070000824800F019FB20B90121804800F021FB4C
:1007100003E001217D4800F01EFB00BF04217A4860
:1007200000F0FDFA0028F9D010BDA1280ED17849BB
:10073000097811B90121774A117077490A78097847
:10074000491C754B1970754988544FE01A281ED101
:100750007049097871B101216D4A117000216D4A0B
:1007600011706D490A780978491C6B4B19706B49F7
:1007700088543BE066490978002937D066490A78F1
:100780000978491C644B1970644988542EE060490B
:10079000097831B360490A780978491C5E4B1970B1
:1007A0005E49885419460978491E5C4A515CAA2959
:1007B0001CD1002105E0594A525C594B5A544A1C3D
:1007C000D1B2564A9278921C8A42F4DC0122554BEF
:1007D0001A700022504B1A704E4B1A704C4B1A7004
:1007E00004E000214C4A11704A4A1170704710B55C
:1007F00040214D4800F0DAFE40F225514A4800F011
:10080000DEFE40B1484800F05AFE484908700846EC
:100810000078FFF78AFF10BD10B540F2255144481B
:1008200000F0CDFE28B3424800F049FEC4B2414872
:10083000008810F4004F1CD13E480088642812DA6A
:1008400000213D4801F0A6FE3A48008818B9012170
:10085000394801F014FC37490888411C354A118099
:1008600036490C5405E03348008840F400403149D3
:10087000088010BD10B54021314800F097FE40F2CD
:1008800025512F4800F09BFE60B32D4800F017FE65
:100890002C492D4A1278885408460078FA2800D04E
:1008A00010BD29480078401C274908700846007888
:1008B000022803DD2348807836280FD122480078AB
:1008C000042803DD1F480079202807D11E4800783E
:1008D000052807DD1B484079302803D000201A493D
:1008E0000870DDE700BFDBE710B50121174801F014
:1008F00097FE10BD00BFFEE700BFFEE700BFFEE7AA
:100900007047704770477047001801400010014061
:1009100011020020120200201B020020720200209F
:10092000A402002013020020003801401C02002015
:10093000004400401602002000140040C8020020BD
:10094000004800409D0300201902002000040040E0
:1009500000210020674A126842F48032654B1A6019
:1009600000BF644A126802F40030491C10B9B1F5A6
:10097000A06FF6D15F4A126812F4003F01D0012047
:1009800000E00020012842D15B4A126842F01002C8
:10099000594B1A601A46126822F003021A601A466E
:1009A000126842F002021A60524A5268514B5A6071
:1009B0001A4652685A601A46526842F480625A6077
:1009C0001A46526822F47C125A601A46526842F45F
:1009D000E8125A601A46126842F080721A6000BF2C
:1009E000444A126812F0007FFAD0424A526822F05C
:1009F0000302404B5A601A46526842F002025A60A3
:100A000000BF3C4A526802F00C02082AF9D1704734
:100A100010B5FFF79DFF10BD10B53648006840F0D7
:100A200001003449086008464068344908403149AB
:100A3000486008460068324908402E490860084668
:100A4000006820F4802008600846406820F4FE001A
:100A500048604FF41F008860FFF7DAFF4FF0006036
:100A60002849086010BD10B5002100200022214B4C
:100A70005B6803F00C0121B1042906D0082928D1B4
:100A800007E0214B214C236027E01F4B1F4C2360C4
:100A900023E0184B5B6803F47010164B5B6803F49B
:100AA0008032022303EB904022B9194B4343174C89
:100AB00023600DE00F4B5B6813F4003F04D0144B30
:100AC0004343124C236003E00F4B43430F4C23601E
:100AD00003E00D4B0D4C236000BF00BF054B5B686E
:100AE000C3F303130B4CE15C084B1B68CB40074C72
:100AF000236010BD00100240002002400000FFF8FB
:100B0000FFFFF6FE08ED00E000127A003802002038
:100B100000093D003C020020064880470648004787
:100B2000FEE7FEE7FEE7FEE7FEE7FEE7FEE7FEE79D
:100B3000FEE7FEE7190A00083101000810B5044677
:100B4000CA48844208D10121042000F024FB00217E
:100B5000042000F020FB46E0C548844208D1012172
:100B6000082000F018FB0021082000F014FB3AE0F8
:100B7000C048844208D10121102000F00CFB002164
:100B8000102000F008FB2EE0BB48844208D1012170
:100B9000202000F000FB0021202000F0FCFA22E0E1
:100BA000B648844208D10121402000F0F4FA002127
:100BB000402000F0F0FA16E0B148844208D101214B
:100BC000802000F0E8FA0021802000F0E4FA0AE03A
:100BD000AC48844207D10121801500F0DCFA0021E5
:100BE000A01500F0D8FA10BD10B50121084600F09C
:100BF000D2FA0021012000F0CEFA10BD2DE9F0411B
:100C0000024600250026002000230024002791F83A
:100C100003C00CF00F0591F803C01CF0100F03D0B7
:100C200091F802C04CEA0505B1F800C01CF0FF0FB6
:100C300031D0146800202BE04FF0010C0CFA00F3C7
:100C4000B1F800C00CEA03069E4220D183004FF0A9
:100C50000F0C0CFA03F7BC4305FA03FC4CEA04043E
:100C600091F803C0BCF1280F06D14FF0010C0CFA2B
:100C700000FCC2F814C00AE091F803C0BCF1480FB0
:100C800005D14FF0010C0CFA00FCC2F810C0401C5A
:100C90000828D1D31460B1F800C0BCF1FF0F34DDD7
:100CA000546800202EE000F1080C4FF0010808FA0B
:100CB0000CF3B1F800C00CEA03069E4221D1830078
:100CC0004FF00F0C0CFA03F7BC4305FA03FC4CEA97
:100CD000040491F803C0BCF1280F05D100F1080C01
:100CE00008FA0CF8C2F8148091F803C0BCF1480F60
:100CF00007D100F1080C4FF0010808FA0CF8C2F80F
:100D00001080401C0828CED35460BDE8F0814FF617
:100D1000FF710180022181700421C1707047024679
:100D2000002093680B4201D0012000E000207047B2
:100D30000146886880B2704702460020D3680B42A3
:100D400001D0012000E0002070470146C86880B251
:100D5000704701617047416170470AB1016100E06D
:100D600041617047C16070474FF480320A4382612D
:100D70008161826182698269704702460020424B2C
:100D800018684FF68073184040EA021008433E4B43
:100D9000186070473D49C8617047F0B50A460023A6
:100DA00000240021002500F00046B6F1004F02D1DA
:100DB000354EF16901E0344E7168C0F3034583B2EA
:100DC00000F44016B6F5401F08D121F070612E4E98
:100DD000766826F070662C4F7E6012E000F4801674
:100DE000B6F5801F06D1032606FA05F4A14341F0AB
:100DF000706106E0460D360103FA06F6B14341F094
:100E0000706122B1460D360103FA06F6314300F057
:100E10000046B6F1004F02D11B4EF16101E01A4EBF
:100E20007160F0BD30B500228B071C0F0F2303FA51
:100E300004F2154B08338C1053F824309343124CB2
:100E400008348D1044F8253023468C1053F8243094
:100E50008C07240F00FA04F423430B4C08348D1044
:100E600044F8253030BD0A49086070470008014049
:100E7000000C014000100140001401400018014026
:100E8000001C014000200140000001400000204201
:100E9000DC002042DB48006840F00100D9490860CE
:100EA00008464068D8490840D64948600846006866
:100EB000D6490840D34908600846006820F48020DD
:100EC00008600846406820F4FE0048604FF41F00A8
:100ED00088607047CB49096821F48031C94A1160A4
:100EE0001146096821F480211160B0F5803F03D0DC
:100EF000B0F5802F0ED106E0C249096841F4803177
:100F0000C04A116007E0BF49096841F4A021BD4A09
:100F1000116000E000BF00BF704710B5014600221D
:100F2000002300204A11012A02D1B64C236806E0B2
:100F3000022A02D1B34C236A01E0B24C636A01F089
:100F40001F02012494401C4201D0012000E0002037
:100F500010BD70B500240025002600BF3120FFF72A
:100F6000DCFF0646641CB4F5A06F01D0002EF5D05E
:100F70003120FFF7D2FF08B1012500E00025284607
:100F800070BD014600209F4A106820F0F80040EA3A
:100F9000C100106070479E490860704702460020FB
:100FA000984B586820F47C1042EA01031843954B93
:100FB0005860704796490866704701460020914A7C
:100FC000506820F003000843506070478D48406827
:100FD00000F00C007047014600208A4A506820F05B
:100FE000F00008435060704701460020854A506871
:100FF00020F4E06008435060704701460020814AB9
:10100000506820F4605040EAC1005060704729B138
:101010007C4A527A02437B4B5A7206E0794A527AF2
:10102000C343DBB21A40774B5A7270477949086064
:10103000704701460020734A506820F4404008433E
:10104000506070470021744A11706E4A82F8201077
:10105000012802D0042808D103E001216E4A117052
:1010600004E005216C4A117000E000BF00BF70472A
:101070006A49086070476349096A0143614A11621D
:10108000704767490860704730B50021002200248E
:1010900000235C4D6D6805F00C0121B1042905D0D9
:1010A000082923D105E05F4D056022E05D4D056014
:1010B0001FE0544D6D6805F47012524D6D6805F4D3
:1010C0008034022505EB92421CB9574D554305600B
:1010D0000BE04C4D6D6815F4003F03D0524D554365
:1010E000056002E04F4D5543056002E04D4D05603F
:1010F00000BF00BF434D6D6805F0F00109094B4D7D
:101100006B5C0568DD4045603E4D6D6805F4E0614F
:10111000090A464D6B5C4568DD408560394D6D6858
:1011200005F46051C90A414D6B5C4568DD40C560FE
:10113000344D6D6805F44041890B3D4D6B5CC568CD
:10114000B5FBF3F5056130BD29B12E4A5269024362
:101150002C4B5A6104E02B4A52698243294B5A6155
:10116000704729B1274A92690243264B9A6104E0ED
:10117000244A92698243234B9A61704729B1214ADC
:10118000D26902431F4BDA6104E01E4AD2698243EE
:101190001C4BDA61704729B11A4AD2680243194BD5
:1011A000DA6004E0174AD2688243164BDA6070476F
:1011B00029B1144A12690243124B1A6104E0114A20
:1011C000126982430F4B1A6170471A4908607047D1
:1011D0000F49C86470470B49C87170470948406A95
:1011E00040F0807007494862704701460020054A78
:1011F00092680A4201D0012000E0002070470149B6
:1012000088727047001002400000FFF8FFFFF6FEF2
:1012100000004242D8004242201002408004424274
:101220003C04424200127A0000093D004C020020BA
:101230005C0200204004424210B50446FC4884424F
:1012400009D101218803FFF7A6FF00214FF4804058
:10125000FFF7A1FF32E0F748844209D10121480499
:10126000FFF7A6FF00214FF40030FFF7A1FF25E0B4
:10127000F148844209D101218804FFF799FF002138
:101280004FF48020FFF794FF18E0EC48844209D126
:101290000121C804FFF78CFF00214FF40020FFF765
:1012A00087FF0BE0E648844208D101210805FFF7DB
:1012B0007FFF00214FF48010FFF77AFF10BD2DE96A
:1012C000F04786B005460E460024A24600BFA14660
:1012D0000027B08900B100BF2F462C8A4CF6FF7062
:1012E0000440F08804432C82AC894EF6F31004408D
:1012F000B08831890843718908430443AC81AC8AC2
:101300004FF6FF400440B0890443AC8201A8FFF7C8
:10131000BBFEC748874202D1DDF810A001E0DDF82E
:101320000CA0A88910F4004F08D00AEBCA0000EB0B
:101330000A1031684900B0FBF1F807E00AEBCA0077
:1013400000EB0A1031688900B0FBF1F86420B8FBAB
:10135000F0F004012009642101FB1089A88910F430
:10136000004F08D0322000EBC900B0FBF1F000F0D4
:101370000700044308E0322000EB09106421B0FBB1
:10138000F1F000F00F0004432C8106B0BDE8F087B7
:101390004FF41651016000218180C18001810C2130
:1013A000418100218181704710B502460020108ADA
:1013B0004FF2FF0318400B884C8823438C8823434B
:1013C000CC8823431843108210BD00210180418046
:1013D0008180C180704721B1828942F400528281AC
:1013E00004E082894DF6FF731A4082817047F0B5A0
:1013F00003460024002600250020A1F510676A3F5F
:1014000000D100BF1846C1F3421401F01F060127A6
:1014100007FA06F5012C01D10C3004E0022C01D1B1
:10142000103000E014301AB107682F43076002E063
:101430000768AF430760F0BD10B51AB1838A0B434C
:10144000838204E0838ACC43A4B22340838210BD0C
:10145000028A4FF6F0731A400282028A0A4302821D
:10146000704782894FF2FF731A40828182890A4352
:101470008281704721B1828942F00202828104E0B8
:1014800082894FF6FD731A4082817047028A4FF6B7
:10149000DF731A400282028A0A430282704721B136
:1014A000028A42F48042028204E0028A4BF6FF7311
:1014B0001A4002827047C1F30802828070470146D9
:1014C0008888C0F308007047818941F0010181815B
:1014D0007047028BD2B20283028B42EA012202835E
:1014E0007047028B02F47F420283028B0A4302831D
:1014F000704721B1828A42F02002828204E0828A0F
:101500004FF6DF731A408282704721B1828A42F01F
:101510001002828204E0828A4FF6EF731A408282C0
:10152000704721B1828A42F00802828204E0828AF6
:101530004FF6F7731A408282704721B1828942F4D4
:101540000042828103E08289C2F30E0282817047E9
:1015500021B1828A42F40062828204E0828A4FF2E0
:10156000FF731A4082827047828A4FF6FB731A40DB
:101570008282828A0A438282704721B1828A42F043
:101580000202828204E0828A4FF6FD731A40828250
:10159000704702460020B1F5007F00D100BF1388DC
:1015A0000B4201D0012000E00020704701F40072DE
:1015B000B2F5007F00D100BFCA430280704770B50A
:1015C00002460024002300250020A1F510666A3E93
:1015D00000D100BFC1F3421501F01F03012606FA36
:1015E00003F3012D02D19689334006E0022D02D18A
:1015F000168A334001E0968A33400C12012606FA1F
:1016000004F41688344013B10CB1012000E000202E
:1016100070BD10B500220023A1F510646A3C00D112
:1016200000BF0A1201249440A3B2DC43048010BD21
:10163000003801400044004000480040004C004099
:101640000050004036490143364A1160704770B57A
:10165000002100230F22C4784CB3324C246804F4D8
:10166000E064C4F5E0644FEA1421C1F1040322FAF6
:1016700001F2447804FA03F1847804EA020444EAAB
:1016800001014FEA0111284C0678A155047804F0B5
:101690001F054FF0010404FA05F405784FEA6515BB
:1016A0004FF0E02606EB8505C5F8004109E0047817
:1016B00004F01F050124AC401C4D0678761145F856
:1016C000264070BD1A4A0A4002431A4B1A607047FE
:1016D00041B1194A126842EA00024FF0E023C3F810
:1016E000102D07E0144A126822EA00024FF0E023AE
:1016F000C3F8102D7047042808D14FF0E021096984
:1017000041F004014FF0E022116107E04FF0E021C9
:10171000096921F004014FF0E022116170470000D7
:101720000000FA050CED00E000E400E080E100E0DC
:1017300080FFFF1F08ED00E010ED00E000204749AA
:1017400008604749C1F804044649086001F10401F2
:101750000860454845490860704700213F49827943
:10176000002A43D03E4AD2F8002403689A433C4BF7
:10177000C3F800241A46D2F8042403689A4301F1FE
:1017800004031A60027911440A68036842EA0302FA
:101790000A60334AD2F80824036822EA0302304B75
:1017A000C3F808241A46D2F80C24036822EA03027C
:1017B0002F4B1A604279102A10D1294AD2F80824F6
:1017C00003681A43264BC3F808241A46D2F80C249F
:1017D00003681A43224BC3F80C240DE01F494279D9
:1017E00011440A6803681A430A6005E0027911444B
:1017F0000A6803689A430A6070470021016001711A
:101800000C2141710021817170471A49096841EA30
:101810000001134AC2F81014704701460020134A11
:1018200012680A4201D0012000E0002070470F49F1
:1018300008607047014600200022084B1B6803EA3D
:101840000102074BD3F814340B4202D00AB1012035
:1018500000E000207047054908607047000401401F
:101860000000014008040140FFFF0F001404014084
:101870000C0401401004014010B50446FF488442A6
:1018800008D10121C014FFF786FC0021E014FFF706
:1018900082FCC4E0B4F1804F08D101210846FFF773
:1018A00087FC00210120FFF783FCB8E0F448844264
:1018B00008D101210220FFF77BFC00210220FFF765
:1018C00077FCACE0EF48844208D101210420FFF707
:1018D0006FFC00210420FFF76BFCA0E0EA48844283
:1018E00008D101210820FFF763FC00210820FFF741
:1018F0005FFC94E0E548844208D101211020FFF705
:1019000057FC00211020FFF753FC88E0E048844298
:1019100008D101212020FFF74BFC00212020FFF7F8
:1019200047FC7CE0DB48844208D101214014FFF7EA
:1019300032FC00216014FFF72EFC70E0D648844290
:1019400009D10121C804FFF726FC00214FF4002033
:10195000FFF721FC63E0D148844209D10121080549
:10196000FFF719FC00214FF48010FFF714FC56E03C
:10197000CB48844209D101214805FFF70CFC002126
:101980004FF40010FFF707FC49E0C648844208D135
:1019900001214020FFF70CFC00214020FFF708FC4C
:1019A0003DE0C148844208D101218020FFF700FCBE
:1019B00000218020FFF7FCFB31E0BC48844208D1C5
:1019C00001218015FFF7F4FB0021A015FFF7F0FBC4
:1019D00025E0B748844209D101210804FFF7DBFB69
:1019E00000214FF48030FFF7D6FB18E0B148844265
:1019F00009D101214804FFF7CEFB00214FF400304C
:101A0000FFF7C9FB0BE0AC48844208D101218804F0
:101A1000FFF7C1FB00214FF48020FFF7BCFB10BD96
:101A200000220288954B98420ED09A4B98420BD0D8
:101A3000B0F1804F08D0924B984205D0914B98421C
:101A400002D0914B984204D14FF68F731A404B88C5
:101A50001A438E4B984207D08D4B984204D04FF6D4
:101A6000FF431A40CB881A4302808B8883850B88FA
:101A70000385824B98420BD0864B984208D08C4B02
:101A8000984205D08B4B984202D08B4B984201D1A3
:101A90000B7A038601238382704770B500240022ED
:101AA0000023058C4FF6FE7635400584028C838832
:101AB000048B4FF68F752C40B51E2C400D882C439F
:101AC000751E2A400D892A434D882A436B4DA84232
:101AD0000BD0704DA84208D0754DA84205D0754D69
:101AE000A84202D0744DA84213D14FF6F7752A4090
:101AF0004D892A434FF6FB752A408D882A434FF6BD
:101B0000FF652B404FF6FF552B408D892B43CD8928
:101B10002B4383800483CD888586028470BD70B595
:101B2000002400220023058C4FF6EF763540058413
:101B3000028C8388048B48F6FF752C404FF6FF45D6
:101B40002C400D882D0644EA15444FF6DF752A40D7
:101B50000D892D0542EA15424D882D0542EA1542B0
:101B6000464DA84202D04B4DA8421BD14FF67F757F
:101B70002A404D892D0542EA15424FF6BF752A408D
:101B80008D882D0542EA15424FF6FF352B404FF266
:101B9000FF752B408D89AD0443EA1543CD89AD0413
:101BA00043EA154383800483CD880587028470BD92
:101BB00070B5002400220023058C4FF6FF663540E7
:101BC0000584028C8388848B4FF68F752C404FF6EA
:101BD000FC752C400D882C434FF6FF552A400D898B
:101BE0002D0642EA15424D882D0642EA1542234D44
:101BF000A84202D0274DA8421BD14FF2FF752A40C0
:101C00004D892D0642EA15424FF6FF352A408D8850
:101C10002D0642EA15424EF6FF752B404DF6FF7534
:101C20002B408D892D0543EA1543CD892D0543EAC7
:101C3000154383808483CD888587028470BD70B509
:101C4000002200230024058C4EF6FF7635400584E3
:101C5000038C8488828B48F6FF752A404FF6FF4537
:101C60002A400D882D0642EA15424DF6FF752B409D
:101C70000D892D0743EA15434D881FE0002C0140D4
:101C80000004004000080040000C0040001000402C
:101C90000014004000340140004C0140005001405D
:101CA0000054014000180040001C0040002000408B
:101CB0000040014000440140004801402D0743EA34
:101CC0001543F94DA84202D0F84DA84206D14BF673
:101CD000FF752C408D89AD0544EA154484808283CC
:101CE000CD88A0F84050038470BD828B4FF2FF3343
:101CF0001A408283828B0B0642EA1342828370472A
:101D0000F0B50C461546002200210026078C4EF641
:101D1000FF7C07EA0C070784828B018C27073E0CA7
:101D200040F6FF473A402F0642EA17421F0742EAB1
:101D30001742DD4FB8420ED0DC4FB8420BD0B0F1A5
:101D4000804F08D0DA4FB84205D0DA4FB84202D0FF
:101D5000D94FB84206D14DF6FF77394046F4805747
:101D6000394305E047F6FF57394044F4805739437B
:101D700082830184F0BD828B4FF6F3731A40828315
:101D8000828B0A4382837047F0B50C4615460022C9
:101D900000210026078C4FF6FF6C07EA0C0707842A
:101DA000828B018C27063E0C4FF60C773A401F05BC
:101DB00045EA17473A43BC4FB8420ED0BB4FB84232
:101DC0000BD0B0F1804F08D0B94FB84205D0B94F11
:101DD000B84202D0B84FB84206D14FF6FF5739404B
:101DE00046F48077394305E04FF2FF57394044F419
:101DF0008077394382830184F0BD028B4FF2FF3339
:101E00001A400283028B0B0642EA13420283704798
:101E1000F0B50C461546002200210026078C4FF62F
:101E2000EF7C07EA0C070784028B018C27053E0C28
:101E300040F6FF473A401F0742EA17422F0642EAA0
:101E40001742994FB8420ED0984FB8420BD0B0F11C
:101E5000804F08D0964FB84205D0964FB84202D076
:101E6000954FB84206D14FF6DF77394046F010075C
:101E7000394305E04FF65F77394044F010073943A6
:101E800002830184F0BD028B4FF6F3731A40028384
:101E9000028B0A4302837047F0B50C4615460022B8
:101EA0000021068C4FF6FE773E400684028B018CA3
:101EB0004FF60C7632401E0545EA164632437A4EFE
:101EC000B0420ED0794EB0420BD0B0F1804F08D066
:101ED000774EB04205D0774EB04202D0764EB04237
:101EE00006D14FF6FD76314044F00106314305E05E
:101EF0004FF6F576314044F0010631430283018408
:101F0000F0BD70B505460C46674885420ED067485F
:101F100085420BD0B5F1804F08D06548854205D089
:101F20006448854202D06448854200D100E000BF89
:101F3000208850B92389A28861882846FFF7ACFF22
:101F4000E1882846FFF79FFF25E0208804280AD172
:101F50002389A28861882846FFF75AFFE18828462E
:101F6000FFF74BFF17E0208808280AD12389A288B1
:101F700061882846FFF708FFE1882846FFF7FBFE47
:101F800009E02389A28861882846FFF7B9FEE18825
:101F90002846FFF7AAFE70BD2DE9F04105460C4624
:101FA00000260127608808B9022600E00026A088E4
:101FB000012801D1022700E001272088A0B9238948
:101FC000A28861882846FFF767FFE1882846FFF767
:101FD0005AFF23893A4631462846FFF719FFE18820
:101FE0002846FFF70AFF13E02389A2886188284664
:101FF000FFF70EFFE1882846FFF7FFFE23893A46E8
:1020000031462846FFF748FFE1882846FFF73BFFA7
:10201000BDE8F0810A884B881A438B881A43CB8825
:102020001A430B891A434B891A438B891A43A0F828
:10203000442070474FF6FF71818000210180C180EC
:102040004180017270470021018041808180C18000
:10205000018141818181C1817047002101804180DE
:10206000012181800021C180018170470021018010
:1020700041808180C180018141818181704721B18E
:10208000028842F00102028004E002884FF6FE73EB
:102090001A400280704789B1B0F8442042F40042EF
:1020A000A0F8442010E00000002C01400034014062
:1020B0000004004000080040000C0040B0F844203C
:1020C000C2F30E02A0F84420704710B51AB18389FC
:1020D0000B43838104E08389CC43A4B223408381F2
:1020E00010BD8182704741EA0203A0F84830704772
:1020F00010B51AB183890B43838104E08389CC43F3
:10210000A4B22340838110BD01894FF6F8721140BB
:10211000018170470A46002101894FF68F731940EB
:1021200011430181704730B504460D4629462046CB
:10213000FFF7F0FF208940F00700208130BD2DE936
:10214000F04104460D4616461F46602D06D13B461B
:10215000012231462046FFF75BFE05E03B460122A7
:1021600031462046FFF798FE29462046FFF7D2FF6A
:10217000208940F007002081BDE8F08130B50C4691
:1021800000210189C9B21D0642EA154525432943AC
:10219000018130BD2DE9F04105460E4617469846AF
:1021A000002443463A4631462846FFF7E7FF2C898C
:1021B0004FF6F8710C4044F007044FF68F710C4055
:1021C00044F070042C81BDE8F081F0B504460D4662
:1021D00016461F463B46324629462046FFF7CEFFAD
:1021E000208940F480402081F0BD018582827047C3
:1021F0000A46002101884FF68F7319401143018070
:102200007047F0B50C4615461E46002100220023FB
:102210000189028B038C4FF6F877394021434FF642
:10222000FC473A4040F201173A434FF6DD773B4016
:10223000370545EA17473B43018102830384F0BD1C
:102240000A460021018B4FF68F7319401143018319
:1022500070470A460021018B48F6FF7319401306A8
:1022600041EA1341018370470A460021818B4FF6F2
:102270008F7319401143818370470A460021818B77
:1022800048F6FF731940130641EA134181837047F2
:1022900021B1028842F08002028004E002884FF6F9
:1022A0007F731A400280704721B1828842F0040295
:1022B000828004E082884FF6FB731A408280704768
:1022C00021B1828842F00802828004E082884FF6C1
:1022D000F7731A408280704721B1828842F0010270
:1022E000828004E082884FF6FE731A408280704735
:1022F0000A460021018B4FF6F77319401143018301
:1023000070470A460021018B4FF2FF7319401306F4
:1023100041EA1341018370470A460021818B4FF641
:10232000F77319401143818370470A460021818B5E
:102330004FF2FF731940130641EA1341818370473E
:102340000A460021018B4FF6FB73194011430183AC
:1023500070470A460021018B4FF6FF3319401306E0
:1023600041EA1341018370470A460021818B4FF6F1
:10237000FB7319401143818370470A460021818B0A
:102380004FF6FF331940130641EA1341818370472A
:102390000A460021018B4FF67F73194011430183D8
:1023A00070470A460021018BC1F30E01130641EA72
:1023B0001341018370470A460021818B4FF67F73DA
:1023C00019401143818370470A460021818BC1F374
:1023D0000E01130641EA1341818370470A4600212A
:1023E000018C4FF6FD7319401143018470470A4672
:1023F0000021018C4FF6F773194011430184704797
:102400000A460021018C4FF6DF731940130541EA9B
:102410001341018470470A460021018C4FF67F73F7
:102420001940130541EA1341018470470A4600210F
:10243000018C4FF6FF531940130641EA1341018402
:1024400070470A460021018C4FF2FF7319401306B2
:1024500041EA1341018470470A460021018C4DF680
:10246000FF731940130741EA13410184704730B5E7
:10247000002301248C40A3B2048CDD43ADB22C4078
:102480000484048C02FA01F5ADB22C43048430BDFF
:1024900030B5002304248C40A3B2048CDD43ADB2DC
:1024A0002C400484048C02FA01F5ADB22C43048460
:1024B00030BD70B5034600200024184618300125B1
:1024C0008D40ACB21D8CE643B6B235401D8409B1D7
:1024D000082909D100EB6100056825F07005056049
:1024E0000568154305600CE00D1FADB200EB6500FB
:1024F000056825F4E04505600568160645EA1645B9
:10250000056070BD21B1028842F00202028004E041
:1025100002884FF6FD731A400280704721B102888D
:1025200042F00402028004E002884FF6FB731A4076
:102530000280704721B1828842F08002828004E0EC
:1025400082884FF67F731A408280704702884FF668
:10255000F7731A40028002880A430280704782881B
:102560004FF68F731A40828082880A4382807047B8
:1025700002894FF6F8731A40028102890A430281E8
:10258000704702894FF67F731A40028102890A431D
:1025900002817047818470478185704781867047CA
:1025A0000187704781877047A0F840107047028804
:1025B0004FF6FF431A40028002880A4302807047A8
:1025C0000146888E70470146088F70470146888F04
:1025D00070470146B1F8400070470146888C70474B
:1025E0000146088D704702460020138A0B4201D035
:1025F000012000E000207047CA430282704730B5D6
:102600000246002000230024158A05EA010395896B
:1026100005EA010413B10CB1012000E0002030BD37
:10262000CA4302827047014601EBC1024FF0E0232A
:102630005A6101221A6100229A6100BF4FF0E02224
:10264000106910F0010F02D010F4803FF6D0002284
:102650004FF0E0231A619A617047014642F2283236
:102660004A434FF0E0235A6101221A6100229A6125
:1026700000BF4FF0E022106910F0010F02D010F4FB
:10268000803FF6D000224FF0E0231A619A61704734
:1026900000B587B001210420FEF763FD0121082069
:1026A000FEF75FFD01210846FEF75BFD012188036F
:1026B000FEF757FD01214804FEF760FD0121880463
:1026C000FEF75CFD4FF40070ADF8180003208DF8A4
:1026D0001A0018208DF81B0006A95C48FEF78EFA38
:1026E0004FF48060ADF8180004208DF81B0006A997
:1026F0005648FEF783FA0420ADF8180018208DF82C
:102700001B0006A95148FEF779FA0820ADF8180019
:1027100004208DF81B0006A94C48FEF76FFA4FF411
:102720008060ADF8180018208DF81B0006A94848F5
:10273000FEF764FA4FF40060ADF8180004208DF83D
:102740001B0006A94248FEF759FA4FF416400190C3
:102750000020ADF80800ADF80A00ADF80C00ADF8A7
:1027600010000C20ADF80E0001A93A48FEF7A7FDB5
:102770004FF4E130019001A93748FEF7A0FD01A90F
:102780003648FEF79CFD01213248FEF724FE012267
:1027900040F225512F48FEF72AFE40212D48FEF732
:1027A00005FF01212C48FEF716FE012240F22551BB
:1027B0002948FEF71CFE40212748FEF7F7FE0121BD
:1027C0002648FEF708FE012240F225512348FEF775
:1027D0000EFE40212148FEF7E9FE4FF4C060FEF7EF
:1027E00031FF25208DF8140000208DF815008DF89C
:1027F000160001208DF8170005A8FEF728FF2620F7
:102800008DF8140001208DF8150000208DF81600B9
:1028100005A8FEF71CFF27208DF8140002208DF874
:10282000150000208DF8160005A8FEF710FF41F6F0
:102830001F41632000F055FA00200949088000215B
:102840000848FFF71CFC07B000BD0000000801406D
:10285000000C0140003801400044004000480040A6
:10286000160200200014004000B589B0012110209C
:10287000FEF777FC01210220FEF780FC01210846CB
:10288000FEF76FFCC020ADF8200003208DF8220079
:1028900018208DF8230008A91B48FEF7AFF940F275
:1028A000CF20ADF814004FF4FA60ADF81800002006
:1028B000ADF81A00ADF8160005A91448FFF7B0F8F6
:1028C00001211348FEF769FA6020ADF804000120E9
:1028D000ADF806000020ADF80C0001A90B48FFF789
:1028E000DCF808210948FFF703FD01A90748FFF7B5
:1028F00016F908210548FFF704FD01210348FFF7F9
:10290000BEFB09B000BD0000001001400004004003
:10291000000C1A0008B5FEF77FF801211020FEF721
:1029200020FC0320ADF8000010208DF803000320E8
:102930008DF8020069460248FEF760F908BD000004
:102940000010014010B50446A1B24848FFF726FE2A
:10295000A1B24648FFF724FE204610BD70B50446DC
:102960000D46A1B24148FFF719FEA9B23F48FFF753
:1029700017FE601970BD3E48007870473C490870EA
:10298000704710B50120FFF7F9FF9620FFF7DAFF37
:1029900010BD70B50446C4F196050220FFF7EEFFA6
:1029A0002846FFF7CFFF70BD70B5044604F19605C9
:1029B0000320FFF7E3FF2846FFF7C4FF70BD2DE9B2
:1029C000F04F87B080468B46584600F0ACFB04467B
:1029D00002460B460020274900F020FB0022264B30
:1029E000CDE9000100F0A9FA0022224BCDE9020155
:1029F00000F0FEF9CDE9040100F0A2FB06460A2E24
:102A000000D30A263746052F00D31C37A8EB06094A
:102A100008EB070AFFF7AFFF062802D009280AD102
:102A200004E051464846FFF799FF04E04946504606
:102A3000FFF794FF00BF00BF404607B0BDE8F08F2E
:102A400070B504460D460620FFF798FF294620463C
:102A5000FFF7B5FF70BD70B504460D460920FFF7BE
:102A60008DFF29462046FFF7AAFF70BD00040040F5
:102A7000600200200000E03F0000304002461346A4
:102A800010E010782A2805D01078202802DB107872
:102A90007A2801DDFF20704710782C2801D1481ECC
:102AA000C1B2521C0029ECD1D01AC0B2F3E710B564
:102AB0000246012000E050430B00A1F10104E1B205
:102AC000F9D110BD2DE9F34F81B007463C464FF0D8
:102AD000000A0020009081460026804628E02078E9
:102AE0002D2802D148F00208641C20782C2802D03E
:102AF00020782A2800D11CE020782E2803D148F025
:102B00000108641C09E02078392802DC207830288C
:102B100003DA4FF0000900260BE018F0010F02D095
:102B2000701CC6B203E009F1010000F0FF09641C4B
:102B3000D5E700BF18F0020F00D07F1C002511E080
:102B4000A9F10100401BC1B20A20FFF7B0FF795D77
:102B5000303900FB01AA6420BAFBF0F100FB11AA96
:102B6000681CC5B24D45EBDB072E00DD0726029839
:102B70000670002510E0701E401BC1B20A20FFF74E
:102B800096FF09F101012944795C3039009A00FB74
:102B900001200090681CC5B2B542ECDB31460A202A
:102BA000FFF785FF00990AFB001B18F0020F01D008
:102BB000CBF1000B5846BDE8FE8F2DE9F8430446E3
:102BC00088463BA1404600F0BDF807460121384643
:102BD000FFF754FF0546FF2D1FD078196946FFF710
:102BE00071FF81469DF800100A20FFF760FFB9FBD6
:102BF000F0F642F21070B6FBF0F020706420B6FBE5
:102C0000F0F06421B0FBF1F201FB1200607064206F
:102C1000B6FBF0F100FB1160A07003213846FFF70E
:102C20002DFF0546FF2D09D078196946FFF74AFFA9
:102C300006460620B6FBF0F0C4F80300052138462E
:102C4000FFF71CFF0546FF2D09D078196946FFF7ED
:102C500039FF06460620B6FBF0F0C4F8070007214E
:102C60003846FFF70BFF0546FF2D16D07819694649
:102C7000FFF728FFA4F80B009DF8000003280CDAEA
:102C80009DF80000C0F10300C1B20A20FFF70FFF5A
:102C9000B4F80B104843A4F80B00BDE8F88370B5F6
:102CA00004460D4629462046FFF787FF70BD000009
:102CB0004750524D4300000010B501211F48FFF757
:102CC0009EFC68B11E48008840F400401C49088002
:102CD00001211A48FFF7A4FC00211848FFF7CFF99B
:102CE00010BD7FB505460C4601212020FEF746FAAF
:102CF000ADF80450ADF800400020ADF80600ADF886
:102D0000020069460D48FEF78BFE012211460B4872
:102D1000FFF7DBF901210948FFF7B1F937208DF8FA
:102D20000C0000208DF80D0002208DF80E0001200F
:102D30008DF80F0003A8FEF78AFC7FBD0014004049
:102D40001602002030B50EE003460A4601E05B1C87
:102D5000521C1C781578AC4201D1002CF7D115F02B
:102D6000FF0F04D0401C0278002AEDD1002030BDB6
:102D700080EA010202F0004330B430F0004221F05A
:102D8000004015D0A0B1C0F3C755C2F3C754C2F379
:102D90001601C0F31600651B41F4000140F4000069
:102DA0007D35814201D36D1C00E04900002D02DA1F
:102DB00030BC002070474FF400020024814201D350
:102DC000091A144352084FEA4101F7D151B1814227
:102DD00002D14FF0004105E002D24FF0010101E0C5
:102DE0006FF0010104EBC55030BC184400F057BA35
:102DF0002DE9FE4F074681EA0300C00F0E46019001
:102E000021F0004123F00044B81AA14105D2384610
:102E1000314617461E460B46024623F0004010433B
:102E200004D13846314603B0BDE8F08F350DC5F307
:102E30000A00C3F30A510290401A0090402867DA52
:102E4000C3F3130040F4801B0198924620B1002385
:102E5000D2EB030A63EB0B0B00985946C0F140021A
:102E6000504600F0EBF980460C4650465946009A11
:102E700000F003FAC0197141EF1785EA11533B4383
:102E80003FD0019A4AB3009A012A11DC0022801A2D
:102E900061EB05514FF0004303EA0555CDE90025EC
:102EA000801841F580114246234600F03DFABAE70A
:102EB0002E050025401B61EB0601401941F58012EB
:102EC000001852412818A6F5001343EB020140EA0E
:102ED000D47018EB0808644113E064084FEA38081E
:102EE0004FF0000244EAC0744FEA0553801A61EBC8
:102EF0000301801841F5801149084FEA300080181D
:102F000059414246234603B0BDE8F04F00F0FFB9F7
:102F10000198012240000023D0EB020263EBE07332
:102F200001984FEAE074381A66EB0401EBE783F08E
:102F300000435DE781F000415AE72DE9FE4F81EA49
:102F4000030421F0004504F0004423F000414FF059
:102F5000000A009450EA050302D052EA010304D1AA
:102F60000020014603B0BDE8F08FC1F30A53C5F35A
:102F70000A542344A3F2F3330193A0FB02B3C5F335
:102F8000130545F4801CC1F3130141F480180CFBB8
:102F9000023300FB083E810A930A41EA8C5143EA5E
:102FA0008853A1FB03474FEA9C2505FB03734FEAB7
:102FB000982601FB06373D05260545EA1435BBEB8F
:102FC00006016EEB0503850E920E45EA8C1542EA6A
:102FD0008812A5FB0206261E67EB00070C0D44EACB
:102FE0000334A61947EB1350C1F313044FF0000349
:102FF0001946E5FB02014FEA033545EA1455019BEA
:103000004FEA0432009CA3F10C03CDE900A445EA89
:10301000060502932B4600F087F9A3E72DE9F04D52
:1030200081EA030404F0004B21F0004714464FF0FE
:10303000000A23F0004150EA070220D054EA0102BE
:103040001DD0C1F30A550246C1F31300C7F30A5657
:10305000C7F3130340F4801143F48013A6EB050873
:10306000101BD64608F2FD3873EB010002D308F1BD
:10307000010801E092185B41B8F1000F03DA00206B
:103080000146BDE8F08D00204FF480150646074646
:103090000EE0B2EB040C73EB010C04D3121B0643DD
:1030A00063EB01032F436D084FEA300092185B4138
:1030B00050EA050CEDD152EA030012D082EA040076
:1030C00083EA0105284303D100224FF0004308E0C2
:1030D000101B8B4102D20122002302E06FF001029B
:1030E00053101AEB060047EB085110EB0A0041EBB6
:1030F0000B01BDE8F04D00F00AB9962300221146FD
:1031000000F0D6B80EB5C10F80EAE0700844CA07D7
:10311000002140F233438DE80E000A460B4600F0D2
:1031200003F903B000BD0EB5002240F23343CDE9F0
:10313000002202931346114600F0F6F803B000BDDA
:1031400070B5C1F30A5201F000450024C1F3130128
:1031500040F2FF3341F480119A4201DA002070BD41
:1031600040F233439A42A2F2334203DC524200F06F
:1031700074F800E090402C43F1D0404270BD00F064
:10318000004230F000400DD0C10D01F5607142EAFF
:1031900001510022C0F31600520742EAD002400754
:1031A0001143704700200146704730B50B46014679
:1031B00000202022012409E021FA02F59D4205D3D6
:1031C00003FA02F5491B04FA02F52844151EA2F180
:1031D0000102F1DC30BD2DE9F05F0546002092468A
:1031E0009B4688460646814640241DE028464146C7
:1031F0004746224600F031F8B0EB0A0052465B46E3
:1032000071EB0B0110D310461946224600F016F858
:103210002D1A67EB01084F4622460120002100F0DD
:103220000DF817EB00094E41201EA4F10104DDDC6E
:10323000484631462A464346BDE8F09F202A04DB33
:10324000203A00FA02F1002070479140C2F12003B9
:1032500020FA03F3194390407047202A04DB203AF8
:1032600021FA02F00021704721FA02F3D040C2F1A6
:1032700020029140084319467047202A06DBCB17ED
:10328000203A41FA02F043EAE07306E041FA02F321
:10329000D040C2F1200291400843194670470029EE
:1032A000A8BF7047401C490008BF20F001007047CC
:1032B00010B4B0FA80FC00FA0CF050EA010404BF2C
:1032C00010BC704749B1CCF1200421FA04F411FA82
:1032D0000CF118BF012121430843A3EB0C01CB1DC6
:1032E0004FEA00614FEA102048BF0020BCBF10BC6D
:1032F000704700EBC35010440029A4BF10BC7047B6
:10330000401C490008BF20F0010010BC704710B5F8
:10331000002B08DA401C41F1000192185B411A436E
:1033200001D120F0010010BD2DE9FF4D934611B1F0
:10333000B1FA81F202E0B0FA80F220329246FFF751
:103340007DFF039A0746884640EA0B0011435B461F
:10335000084304D13846414604B0BDE8F08D11461B
:1033600053EA020016D0CAF140025846FFF775FF33
:1033700004460D464FF00106584652460399FFF7A2
:103380005DFF084300D10026344345EAE675274334
:1033900045EA08080E984FF00005A0EB0A014FEA35
:1033A000D7200A314FEA47532A4640EA48504FEAAD
:1033B000D82402D500200146CEE7281844EB01515D
:1033C000DDE90C45001904B06941BDE8F04D9EE708
:1033D000C1F30A52C1F3130140F2FF3341F48011EB
:1033E0009A4202DA00200146704740F233439A4283
:1033F000A2F2334202DC5242FFF72FBFFFF71EBF9B
:1034000030B5002904DB4FF00044404264EB010179
:10341000002B04DB4FF00044524264EB030399425B
:1034200008BF904230BD0000064C074D06E0E06842
:1034300040F0010394E8070098471034AC42F6D3FB
:10344000FCF77AFE643D0008843D000870B501EB8E
:10345000020410F8015B15F0070301D110F8013BDD
:103460002A1106D110F8012B03E010F8016B01F8C6
:10347000016B5B1EF9D12B0705D40023521E0FD41C
:1034800001F8013BFAE710F8013B02F10202A1EB5F
:10349000030303E013F8015B01F8015B521EF9D549
:1034A000A142D6D3002070BD0FB4054B10B503A9BF
:1034B000044A029800F0C2F810BC5DF814FB00004A
:1034C000750100086402002002E008C8121F08C14C
:1034D000002AFAD170477047002001E001C1121F95
:1034E000002AFBD1704700002DE9FF5FDDE90210E3
:1034F000020DDDF838B001430FD10F9801244AA323
:10350000012807D000980F9AC0E90031C0E90242B3
:10351000BDE8FF9F6FEA0B01F4E7A2F2FF3244F629
:103520001050424315140F9801280FD0A5EB0B0043
:10353000401C4FF000043D4EDFF8F490B0F1000A5B
:10354000A046C0F1000717DB074615E0CBF10000ED
:10355000EFE7F80707D02246334640464946FFF7D3
:10356000ECFC804689462246334620463146FFF72A
:10357000E4FC04460E467F10002FEAD1DDE902018B
:10358000BAF1000F42464B4602DAFFF7D6FC01E0E3
:10359000FFF744FD04460E460022264BFFF730FF9E
:1035A00003D84FF0FF30014607E00022224B2046AF
:1035B0003146FFF71DFCFFF70BFF102409E0002C3C
:1035C0000ADB0A220023FFF706FE019B30321A5560
:1035D000641E50EA0102F2D1641C019AC4F1110385
:1035E00014440F9A012A07D00122084301D15B45F8
:1035F0000DDD00226D1C0DE0084303D1A3EB0B058C
:103600006D1E09E000204FF0110B0F908BE701DADF
:1036100000226D1E002A86D000980F99C0E9023161
:10362000C0E9004574E700003000000000002440BD
:103630000000F03F0000F0430000E03F2DE9FF4FA5
:1036400095B006469A460F460025F2E1252879D125
:103650000024761CFB4AA046012106943378203BC7
:1036600001FA03F0104202D00443761CF6E73078EA
:103670002A2811D06FF02F023078A0F130010929EB
:1036800015D8069944F0020401EB810102EB4101D7
:103690000844761C0690EFE701CF0690002803DA75
:1036A000404244F40054069044F00204761C307802
:1036B0002E2817D116F8010F44F004042A280ED042
:1036C0006FF02F023078A0F1300109290AD808EBF9
:1036D000880102EB410100EB0108761CF2E757F884
:1036E000048B761C30786C280FD006DC4C2817D061
:1036F00068280DD06A2814D104E0742810D07A28E4
:103700000FD10DE044F400140AE044F4801401E009
:1037100044F440147178814202D1761C04F580147F
:10372000761C3078864666280BD013DC582872D079
:1037300009DC002870D04528F6D04628F4D0472868
:103740001AD195E118E0632831D0642874D0652837
:1037500012D18DE170286ED008DC6728F1D069287D
:103760006AD06E280DD06F2806D1A8E0732827D024
:10377000752874D0782873D05246179990476D1CDD
:1037800055E1C4F30250022806D003280AD00428C9
:1037900001CF0AD005604AE101CF4FEAE571C0E9E7
:1037A000005144E101CF058041E105703FE101CFC7
:1037B0008DF8000000208DF80100EB46012003E0A9
:1037C00057F804BB4FF0FF3061074FF0000102D4FF
:1037D0000DE009F10101894641450FDA8145F8DB29
:1037E0001BF809100029F4D108E009F1010189460C
:1037F0008142FADB1BF809100029F6D106985346DE
:10380000A0EB090080462146179A00F094FA28445C
:1038100000EB090506E047E00FE11BF8010B5246FB
:1038200017999047B9F10109F7D25346214640460E
:10383000179AF9E000E039E00A21C4F302524FF090
:10384000000B0091022A04D001CFC117032A08D02F
:1038500009E0FF1D27F00707F7E8020107E01CE079
:103860001DE000B2C117042A01D140B2C1170029DE
:1038700006DA0A460021404261EB02012D2202E0F5
:10388000220504D52B228DF80420012203E0E20753
:1038900001D02022F7E7914653E00A2110E01020E2
:1038A0004FF0000B00900EE0102109E010204FF0C7
:1038B000000B44F004044FF00808009003E00821D6
:1038C0004FF0000B0091C4F30252022A04D001CF42
:1038D0000021032A06D007E0FF1D27F00707F7E8BD
:1038E000020105E080B20021042A01D1C0B200210A
:1038F0004FF00009220724D5BEF1700F2AD0009B9B
:1039000083F0100353EA0B0309D150EA010206D0F9
:1039100030228DF804208DF805E002229146009BAC
:1039200083F0080353EA0B030BD150EA010201D1E3
:10393000620706D530228DF804204FF00109A8F166
:10394000010841A2BEF1580F00D044A203920FAA71
:1039500002920FE040228DF804200122DEE75B4650
:10396000009AFFF738FC039B9B5C029AA2F10102CC
:103970000292137050EA0102F1D1029807A9A1EB5B
:10398000000000F1200B600702D524F4803401E030
:103990004FF00108002041465A46D84501DDA1EB11
:1039A000020000EB0B01009006984944A0EB0100D7
:1039B0000690E00306D453462146179A069800F075
:1039C000BAF90544002008E001A8524610F80800A2
:1039D000179990476D1C08F1010080464845F3DBBC
:1039E000E0030CD553462146179A069800F0A3F938
:1039F000054404E030205246179990476D1C009909
:103A0000481E00900029F5DC08E002980299524611
:103A10000078491C0291179990476D1CBBF1000179
:103A2000ABF1010BF1DC67E100F072F9054406F13E
:103A30000106307800287FF409AE19B02846BDE8A9
:103A4000F08F000009280100303132333435363729
:103A5000383941424344454600000000303132339A
:103A600034353637383961626364656600000000BA
:103A7000600701D44FF0060807F1070727F0070792
:103A8000A0A1F7E8020C0CF000431A0007D19EA198
:103A9000220504D49DA1E20701D1AFF244011291A5
:103AA0002CF0004C7146BEF1650F0ED007DC4529A5
:103AB0000BD0462920D0BEF1470F3DD13DE066290D
:103AC0001AD0BEF1670F37D137E0002311224146EB
:103AD000B8F1110F00DA4A1CCDE900230246634613
:103AE00007A902A8FFF700FD012000904FF0000B8E
:103AF00008F10109039868E04FF000410F9101239C
:103B0000CDE900830246634607A902A8FFF7ECFC53
:103B1000DDE904904FF0000B20B9039908F1010092
:103B200001EB0009B8EB090003D4C0F1FF3B08F139
:103B30000109A9EB0800009048E04146B8F1010FE7
:103B400001DA0121884600231122B8F1110F00DCAF
:103B50000A46CDE900230246634607A902A8FFF7FB
:103B6000C3FC4FF0000BC14620070FD40499414518
:103B700003DA894601E0A9F10109B9F1010F05DD78
:103B80000299A9F10100085C3028F4D0039941455D
:103B900002DA11F1040F03DA01200F91009015E011
:103BA000002903DC8B44A9EB010005E0481C4845D3
:103BB00003DD039800F1010081460399A1EB0B009E
:103BC00000F1010000904FF000400F90200705D455
:103BD0000098484502DB4FF0FF30009000210F981D
:103BE0000DF147088DF84710B0F1004F26D00220A4
:103BF00001902B2013900F9800280CDA40420F9070
:103C00002D20139007E00A210F98FFF7CEFA3031EC
:103C10000F9008F8011D0199481E01900029F2DC5F
:103C20000F980028EFD1A8F1010213991170317893
:103C300001F0200141F0450108F8021D10A9A1EB97
:103C4000080000F1070001901298007800B10120EF
:103C500000EB0901009801EBE0710198014406981E
:103C6000A0EB0100A0F101000690E00306D453464A
:103C70002146179A069800F05EF8054412980078DD
:103C800020B152461799904705F10105E00322D56E
:103C900053462146179A069800F04DF805441AE05D
:103CA000BBF1000F07DB0499594504DD029911F8B7
:103CB0000B00179901E01799302052469047009861
:103CC0006D1C401E0BF1010B009004D12E205246BA
:103CD000179990476D1CB9F10001A9F10109DFDCCA
:103CE00005E018F8010B5246179990476D1C019991
:103CF000481E01900029F4DC53462146179A069885
:103D000092E600002D0000002B00000020000000C3
:103D10002DE9F0410446002517461E46880405D4C7
:103D200006E039462020B04705F10105641EF8D5AC
:103D30002846BDE8F0812DE9F041044600253027F2
:103D400090461E46C80300D42027880405D506E007
:103D500041463846B04705F10105641EF8D52846AE
:103D6000BDE8F081843D00080000002068020000EA
:103D70004C340008C43E00086802002048050000DA
:103D8000D8340008112808C1814001C0804104696D
:103D90000C2908E918A91C091A30091638093660D7
:103DA000092E70092F6000FF00C0C101C30302C2C9
:103DB000C60607C705C5C404CC0C0DCD0FCFCE0E6B
:103DC0000ACACB0BC90908C8D81819D91BDBDA1ADB
:103DD0001EDEDF1FDD1D1CDC14D4D515D71716D64B
:103DE000D21213D311D1D010F03031F133F3F232BB
:103DF00036F6F737F53534F43CFCFD3DFF3F3EFE2B
:103E0000FA3A3BFB39F9F83828E8E929EB2B2AEA9A
:103E1000EE2E2FEF2DEDEC2CE42425E527E7E6260A
:103E200022E2E323E12120E0A06061A163A3A2627A
:103E300066A6A767A56564A46CACAD6DAF6F6EAEEA
:103E4000AA6A6BAB69A9A86878B8B979BB7B7ABA5A
:103E5000BE7E7FBF7DBDBC7CB47475B577B7B676CA
:103E600072B2B373B17170B050909151935352923A
:103E700096565797559594549C5C5D9D5F9F9E5EAA
:103E80005A9A9B5B99595898884849894B8B8A4A1A
:103E90004E8E8F4F8D4D4C8C44848545874746868A
:103EA000824243834181803340962904013184A2B8
:103EB0004A04680901020304060708090C69108511
:043EC00002040608EA
:0400000508000131BD
:00000001FF
